{
  "contractName": "SupplyChain",
  "abi": [
    {
      "constant": true,
      "inputs": [
        {
          "name": "account",
          "type": "address"
        }
      ],
      "name": "isFactory",
      "outputs": [
        {
          "name": "",
          "type": "bool"
        }
      ],
      "payable": false,
      "stateMutability": "view",
      "type": "function"
    },
    {
      "constant": false,
      "inputs": [
        {
          "name": "account",
          "type": "address"
        }
      ],
      "name": "addConsumer",
      "outputs": [],
      "payable": false,
      "stateMutability": "nonpayable",
      "type": "function"
    },
    {
      "constant": false,
      "inputs": [
        {
          "name": "account",
          "type": "address"
        }
      ],
      "name": "addFactory",
      "outputs": [],
      "payable": false,
      "stateMutability": "nonpayable",
      "type": "function"
    },
    {
      "constant": false,
      "inputs": [],
      "name": "renounceConsumer",
      "outputs": [],
      "payable": false,
      "stateMutability": "nonpayable",
      "type": "function"
    },
    {
      "constant": false,
      "inputs": [],
      "name": "renounceDistributor",
      "outputs": [],
      "payable": false,
      "stateMutability": "nonpayable",
      "type": "function"
    },
    {
      "constant": false,
      "inputs": [
        {
          "name": "account",
          "type": "address"
        }
      ],
      "name": "addDistributor",
      "outputs": [],
      "payable": false,
      "stateMutability": "nonpayable",
      "type": "function"
    },
    {
      "constant": false,
      "inputs": [
        {
          "name": "account",
          "type": "address"
        }
      ],
      "name": "addFarmer",
      "outputs": [],
      "payable": false,
      "stateMutability": "nonpayable",
      "type": "function"
    },
    {
      "constant": false,
      "inputs": [],
      "name": "renounceFarmer",
      "outputs": [],
      "payable": false,
      "stateMutability": "nonpayable",
      "type": "function"
    },
    {
      "constant": true,
      "inputs": [
        {
          "name": "account",
          "type": "address"
        }
      ],
      "name": "isConsumer",
      "outputs": [
        {
          "name": "",
          "type": "bool"
        }
      ],
      "payable": false,
      "stateMutability": "view",
      "type": "function"
    },
    {
      "constant": true,
      "inputs": [
        {
          "name": "account",
          "type": "address"
        }
      ],
      "name": "isDistributor",
      "outputs": [
        {
          "name": "",
          "type": "bool"
        }
      ],
      "payable": false,
      "stateMutability": "view",
      "type": "function"
    },
    {
      "constant": true,
      "inputs": [
        {
          "name": "account",
          "type": "address"
        }
      ],
      "name": "isFarmer",
      "outputs": [
        {
          "name": "",
          "type": "bool"
        }
      ],
      "payable": false,
      "stateMutability": "view",
      "type": "function"
    },
    {
      "constant": false,
      "inputs": [],
      "name": "renounceFactory",
      "outputs": [],
      "payable": false,
      "stateMutability": "nonpayable",
      "type": "function"
    },
    {
      "inputs": [],
      "payable": true,
      "stateMutability": "payable",
      "type": "constructor"
    },
    {
      "anonymous": false,
      "inputs": [
        {
          "indexed": false,
          "name": "upc",
          "type": "uint256"
        }
      ],
      "name": "BeansHarvested",
      "type": "event"
    },
    {
      "anonymous": false,
      "inputs": [
        {
          "indexed": false,
          "name": "upc",
          "type": "uint256"
        }
      ],
      "name": "BeansProcessed",
      "type": "event"
    },
    {
      "anonymous": false,
      "inputs": [
        {
          "indexed": false,
          "name": "upc",
          "type": "uint256"
        }
      ],
      "name": "BeansPacked",
      "type": "event"
    },
    {
      "anonymous": false,
      "inputs": [
        {
          "indexed": false,
          "name": "upc",
          "type": "uint256"
        }
      ],
      "name": "BeansForSale",
      "type": "event"
    },
    {
      "anonymous": false,
      "inputs": [
        {
          "indexed": false,
          "name": "upc",
          "type": "uint256"
        }
      ],
      "name": "BeansSold",
      "type": "event"
    },
    {
      "anonymous": false,
      "inputs": [
        {
          "indexed": false,
          "name": "upc",
          "type": "uint256"
        }
      ],
      "name": "BeansShipped",
      "type": "event"
    },
    {
      "anonymous": false,
      "inputs": [
        {
          "indexed": false,
          "name": "upc",
          "type": "uint256"
        }
      ],
      "name": "BeansGround",
      "type": "event"
    },
    {
      "anonymous": false,
      "inputs": [
        {
          "indexed": false,
          "name": "upc",
          "type": "uint256"
        }
      ],
      "name": "ChocolateMade",
      "type": "event"
    },
    {
      "anonymous": false,
      "inputs": [
        {
          "indexed": false,
          "name": "upc",
          "type": "uint256"
        }
      ],
      "name": "ChocolateShipped",
      "type": "event"
    },
    {
      "anonymous": false,
      "inputs": [
        {
          "indexed": false,
          "name": "upc",
          "type": "uint256"
        }
      ],
      "name": "ChocolateReceived",
      "type": "event"
    },
    {
      "anonymous": false,
      "inputs": [
        {
          "indexed": false,
          "name": "upc",
          "type": "uint256"
        }
      ],
      "name": "ChocolateBranded",
      "type": "event"
    },
    {
      "anonymous": false,
      "inputs": [
        {
          "indexed": false,
          "name": "upc",
          "type": "uint256"
        }
      ],
      "name": "ChocolateForSale",
      "type": "event"
    },
    {
      "anonymous": false,
      "inputs": [
        {
          "indexed": false,
          "name": "upc",
          "type": "uint256"
        }
      ],
      "name": "ChocolateSold",
      "type": "event"
    },
    {
      "anonymous": false,
      "inputs": [
        {
          "indexed": true,
          "name": "account",
          "type": "address"
        }
      ],
      "name": "ConsumerAdded",
      "type": "event"
    },
    {
      "anonymous": false,
      "inputs": [
        {
          "indexed": true,
          "name": "account",
          "type": "address"
        }
      ],
      "name": "ConsumerRemoved",
      "type": "event"
    },
    {
      "anonymous": false,
      "inputs": [
        {
          "indexed": true,
          "name": "account",
          "type": "address"
        }
      ],
      "name": "DistributorAdded",
      "type": "event"
    },
    {
      "anonymous": false,
      "inputs": [
        {
          "indexed": true,
          "name": "account",
          "type": "address"
        }
      ],
      "name": "DistributorRemoved",
      "type": "event"
    },
    {
      "anonymous": false,
      "inputs": [
        {
          "indexed": true,
          "name": "account",
          "type": "address"
        }
      ],
      "name": "FactoryAdded",
      "type": "event"
    },
    {
      "anonymous": false,
      "inputs": [
        {
          "indexed": true,
          "name": "account",
          "type": "address"
        }
      ],
      "name": "FactoryRemoved",
      "type": "event"
    },
    {
      "anonymous": false,
      "inputs": [
        {
          "indexed": true,
          "name": "account",
          "type": "address"
        }
      ],
      "name": "FarmerAdded",
      "type": "event"
    },
    {
      "anonymous": false,
      "inputs": [
        {
          "indexed": true,
          "name": "account",
          "type": "address"
        }
      ],
      "name": "FarmerRemoved",
      "type": "event"
    },
    {
      "constant": false,
      "inputs": [],
      "name": "kill",
      "outputs": [],
      "payable": false,
      "stateMutability": "nonpayable",
      "type": "function"
    },
    {
      "constant": false,
      "inputs": [
        {
          "name": "_upc",
          "type": "uint256"
        },
        {
          "name": "_originFarmerID",
          "type": "address"
        },
        {
          "name": "_originFarmName",
          "type": "string"
        },
        {
          "name": "_originFarmInformation",
          "type": "string"
        },
        {
          "name": "_originFarmLatitude",
          "type": "string"
        },
        {
          "name": "_originFarmLongitude",
          "type": "string"
        },
        {
          "name": "_productNotes",
          "type": "string"
        }
      ],
      "name": "harvestBeans",
      "outputs": [],
      "payable": false,
      "stateMutability": "nonpayable",
      "type": "function"
    },
    {
      "constant": false,
      "inputs": [
        {
          "name": "_upc",
          "type": "uint256"
        }
      ],
      "name": "processBeans",
      "outputs": [],
      "payable": false,
      "stateMutability": "nonpayable",
      "type": "function"
    },
    {
      "constant": false,
      "inputs": [
        {
          "name": "_upc",
          "type": "uint256"
        }
      ],
      "name": "packBeans",
      "outputs": [],
      "payable": false,
      "stateMutability": "nonpayable",
      "type": "function"
    },
    {
      "constant": false,
      "inputs": [
        {
          "name": "_upc",
          "type": "uint256"
        },
        {
          "name": "_price",
          "type": "uint256"
        }
      ],
      "name": "sellBeans",
      "outputs": [],
      "payable": false,
      "stateMutability": "nonpayable",
      "type": "function"
    },
    {
      "constant": false,
      "inputs": [
        {
          "name": "_upc",
          "type": "uint256"
        }
      ],
      "name": "buyBeans",
      "outputs": [],
      "payable": true,
      "stateMutability": "payable",
      "type": "function"
    },
    {
      "constant": false,
      "inputs": [
        {
          "name": "_upc",
          "type": "uint256"
        }
      ],
      "name": "grindBeans",
      "outputs": [],
      "payable": false,
      "stateMutability": "nonpayable",
      "type": "function"
    },
    {
      "constant": false,
      "inputs": [
        {
          "name": "_upc",
          "type": "uint256"
        }
      ],
      "name": "makeChocolate",
      "outputs": [],
      "payable": false,
      "stateMutability": "nonpayable",
      "type": "function"
    },
    {
      "constant": false,
      "inputs": [
        {
          "name": "_upc",
          "type": "uint256"
        },
        {
          "name": "_distributor",
          "type": "address"
        }
      ],
      "name": "shipChocolate",
      "outputs": [],
      "payable": false,
      "stateMutability": "nonpayable",
      "type": "function"
    },
    {
      "constant": false,
      "inputs": [
        {
          "name": "_upc",
          "type": "uint256"
        }
      ],
      "name": "receiveChocolate",
      "outputs": [],
      "payable": false,
      "stateMutability": "nonpayable",
      "type": "function"
    },
    {
      "constant": false,
      "inputs": [
        {
          "name": "_upc",
          "type": "uint256"
        },
        {
          "name": "_brand",
          "type": "string"
        }
      ],
      "name": "brandChocolate",
      "outputs": [],
      "payable": false,
      "stateMutability": "nonpayable",
      "type": "function"
    },
    {
      "constant": false,
      "inputs": [
        {
          "name": "_upc",
          "type": "uint256"
        },
        {
          "name": "_price",
          "type": "uint256"
        }
      ],
      "name": "sellChocolate",
      "outputs": [],
      "payable": false,
      "stateMutability": "nonpayable",
      "type": "function"
    },
    {
      "constant": false,
      "inputs": [
        {
          "name": "_upc",
          "type": "uint256"
        }
      ],
      "name": "purchaseItem",
      "outputs": [],
      "payable": true,
      "stateMutability": "payable",
      "type": "function"
    },
    {
      "constant": true,
      "inputs": [
        {
          "name": "_upc",
          "type": "uint256"
        }
      ],
      "name": "fetchItemBufferOne",
      "outputs": [
        {
          "name": "itemSKU",
          "type": "uint256"
        },
        {
          "name": "itemUPC",
          "type": "uint256"
        },
        {
          "name": "ownerID",
          "type": "address"
        },
        {
          "name": "originFarmerID",
          "type": "address"
        },
        {
          "name": "originFarmName",
          "type": "string"
        },
        {
          "name": "originFarmInformation",
          "type": "string"
        }
      ],
      "payable": false,
      "stateMutability": "view",
      "type": "function"
    },
    {
      "constant": true,
      "inputs": [
        {
          "name": "_upc",
          "type": "uint256"
        }
      ],
      "name": "fetchItemBufferTwo",
      "outputs": [
        {
          "name": "itemSKU",
          "type": "uint256"
        },
        {
          "name": "itemUPC",
          "type": "uint256"
        },
        {
          "name": "originFarmLatitude",
          "type": "string"
        },
        {
          "name": "originFarmLongitude",
          "type": "string"
        },
        {
          "name": "productID",
          "type": "uint256"
        },
        {
          "name": "productNotes",
          "type": "string"
        },
        {
          "name": "productPrice",
          "type": "uint256"
        }
      ],
      "payable": false,
      "stateMutability": "view",
      "type": "function"
    },
    {
      "constant": true,
      "inputs": [
        {
          "name": "_upc",
          "type": "uint256"
        }
      ],
      "name": "fetchItemBufferThree",
      "outputs": [
        {
          "name": "itemSKU",
          "type": "uint256"
        },
        {
          "name": "itemUPC",
          "type": "uint256"
        },
        {
          "name": "itemState",
          "type": "uint8"
        },
        {
          "name": "factoryID",
          "type": "address"
        },
        {
          "name": "distributorID",
          "type": "address"
        },
        {
          "name": "chocolateBrand",
          "type": "string"
        },
        {
          "name": "consumerID",
          "type": "address"
        }
      ],
      "payable": false,
      "stateMutability": "view",
      "type": "function"
    }
  ],
  "bytecode": "0x60806040526200001e33620000c3640100000000026401000000009004565b62000038336200012d640100000000026401000000009004565b620000523362000197640100000000026401000000009004565b6200006c3362000201640100000000026401000000009004565b33600460006101000a81548173ffffffffffffffffffffffffffffffffffffffff021916908373ffffffffffffffffffffffffffffffffffffffff16021790555060016006819055506001600581905550620003c3565b620000e78160006200026b6401000000000262002d7b179091906401000000009004565b8073ffffffffffffffffffffffffffffffffffffffff167f2e0ded4123377a3c2bc9a26f1717655a129e2f20752924d42e730ec89c83dbd060405160405180910390a250565b620001518160016200026b6401000000000262002d7b179091906401000000009004565b8073ffffffffffffffffffffffffffffffffffffffff167f6fdc0147105e43e21da80a75b42d0fd464060d5e1a34b0cefbf0b4ccfc2e36a160405160405180910390a250565b620001bb8160026200026b6401000000000262002d7b179091906401000000009004565b8073ffffffffffffffffffffffffffffffffffffffff167fddbf200aa634dc3fb81cfd68583dd1040d1c751d335e1d86b631bde3e977fea860405160405180910390a250565b620002258160036200026b6401000000000262002d7b179091906401000000009004565b8073ffffffffffffffffffffffffffffffffffffffff167f28b26e7a3d20aedbc5f8f2ebf7da671c0491723a2b78f47a097b0e46dee0714260405160405180910390a250565b600073ffffffffffffffffffffffffffffffffffffffff168173ffffffffffffffffffffffffffffffffffffffff1614151515620002a857600080fd5b620002c382826200032e640100000000026401000000009004565b151515620002d057600080fd5b60018260000160008373ffffffffffffffffffffffffffffffffffffffff1673ffffffffffffffffffffffffffffffffffffffff16815260200190815260200160002060006101000a81548160ff0219169083151502179055505050565b60008073ffffffffffffffffffffffffffffffffffffffff168273ffffffffffffffffffffffffffffffffffffffff16141515156200036c57600080fd5b8260000160008373ffffffffffffffffffffffffffffffffffffffff1673ffffffffffffffffffffffffffffffffffffffff16815260200190815260200160002060009054906101000a900460ff16905092915050565b61302b80620003d36000396000f30060806040526004361061016a576000357c0100000000000000000000000000000000000000000000000000000000900463ffffffff16806304789c981461016f5780630f04ba671461019c578063112940f9146101f757806311ba62691461023a5780632192686114610287578063299077db146102b457806329ce1ec51461045f57806341c0e1b5146104a25780635ecfe176146104b957806361e6982d1461052c578063644241db1461054357806366225ff91461055a5780637250e224146106f457806377c45913146107375780637c4f322f146108bd5780637ce180ca146108f457806380c3f96d1461092157806380fc0ce414610964578063834ff7391461097b5780638774db3b146109d6578063893635e714610a035780638f0c86fa14610a305780639f5e32fa14610a8b578063acd5fba614610ac2578063b942906914610c24578063d38ea5bf14610c7f578063d49bdad014610c9f578063dd73e51114610cb6575b600080fd5b34801561017b57600080fd5b5061019a60048036038101908080359060200190929190505050610cd6565b005b3480156101a857600080fd5b506101dd600480360381019080803573ffffffffffffffffffffffffffffffffffffffff169060200190929190505050610e04565b604051808215151515815260200191505060405180910390f35b34801561020357600080fd5b50610238600480360381019080803573ffffffffffffffffffffffffffffffffffffffff169060200190929190505050610e21565b005b34801561024657600080fd5b5061028560048036038101908080359060200190929190803573ffffffffffffffffffffffffffffffffffffffff169060200190929190505050610e41565b005b34801561029357600080fd5b506102b260048036038101908080359060200190929190505050610fda565b005b3480156102c057600080fd5b5061045d60048036038101908080359060200190929190803573ffffffffffffffffffffffffffffffffffffffff169060200190929190803590602001908201803590602001908080601f0160208091040260200160405190810160405280939291908181526020018383808284378201915050505050509192919290803590602001908201803590602001908080601f0160208091040260200160405190810160405280939291908181526020018383808284378201915050505050509192919290803590602001908201803590602001908080601f0160208091040260200160405190810160405280939291908181526020018383808284378201915050505050509192919290803590602001908201803590602001908080601f0160208091040260200160405190810160405280939291908181526020018383808284378201915050505050509192919290803590602001908201803590602001908080601f0160208091040260200160405190810160405280939291908181526020018383808284378201915050505050509192919290505050611108565b005b34801561046b57600080fd5b506104a0600480360381019080803573ffffffffffffffffffffffffffffffffffffffff1690602001909291905050506114e7565b005b3480156104ae57600080fd5b506104b7611507565b005b3480156104c557600080fd5b5061052a60048036038101908080359060200190929190803590602001908201803590602001908080601f016020809104026020016040519081016040528093929190818152602001838380828437820191505050505050919291929050505061159a565b005b34801561053857600080fd5b506105416116f4565b005b34801561054f57600080fd5b506105586116ff565b005b34801561056657600080fd5b506105856004803603810190808035906020019092919050505061170a565b60405180888152602001878152602001806020018060200186815260200180602001858152602001848103845289818151815260200191508051906020019080838360005b838110156105e55780820151818401526020810190506105ca565b50505050905090810190601f1680156106125780820380516001836020036101000a031916815260200191505b50848103835288818151815260200191508051906020019080838360005b8381101561064b578082015181840152602081019050610630565b50505050905090810190601f1680156106785780820380516001836020036101000a031916815260200191505b50848103825286818151815260200191508051906020019080838360005b838110156106b1578082015181840152602081019050610696565b50505050905090810190601f1680156106de5780820380516001836020036101000a031916815260200191505b509a505050505050505050505060405180910390f35b34801561070057600080fd5b50610735600480360381019080803573ffffffffffffffffffffffffffffffffffffffff1690602001909291905050506119ad565b005b34801561074357600080fd5b50610762600480360381019080803590602001909291905050506119cd565b604051808781526020018681526020018573ffffffffffffffffffffffffffffffffffffffff1673ffffffffffffffffffffffffffffffffffffffff1681526020018473ffffffffffffffffffffffffffffffffffffffff1673ffffffffffffffffffffffffffffffffffffffff1681526020018060200180602001838103835285818151815260200191508051906020019080838360005b838110156108165780820151818401526020810190506107fb565b50505050905090810190601f1680156108435780820380516001836020036101000a031916815260200191505b50838103825284818151815260200191508051906020019080838360005b8381101561087c578082015181840152602081019050610861565b50505050905090810190601f1680156108a95780820380516001836020036101000a031916815260200191505b509850505050505050505060405180910390f35b3480156108c957600080fd5b506108f26004803603810190808035906020019092919080359060200190929190505050611bf7565b005b34801561090057600080fd5b5061091f60048036038101908080359060200190929190505050611d41565b005b34801561092d57600080fd5b50610962600480360381019080803573ffffffffffffffffffffffffffffffffffffffff169060200190929190505050611ec4565b005b34801561097057600080fd5b50610979611ee4565b005b34801561098757600080fd5b506109bc600480360381019080803573ffffffffffffffffffffffffffffffffffffffff169060200190929190505050611eef565b604051808215151515815260200191505060405180910390f35b3480156109e257600080fd5b50610a0160048036038101908080359060200190929190505050611f0c565b005b348015610a0f57600080fd5b50610a2e6004803603810190808035906020019092919050505061203a565b005b348015610a3c57600080fd5b50610a71600480360381019080803573ffffffffffffffffffffffffffffffffffffffff169060200190929190505050612168565b604051808215151515815260200191505060405180910390f35b348015610a9757600080fd5b50610ac06004803603810190808035906020019092919080359060200190929190505050612185565b005b348015610ace57600080fd5b50610aed600480360381019080803590602001909291905050506122cf565b6040518088815260200187815260200186600b811115610b0957fe5b60ff1681526020018573ffffffffffffffffffffffffffffffffffffffff1673ffffffffffffffffffffffffffffffffffffffff1681526020018473ffffffffffffffffffffffffffffffffffffffff1673ffffffffffffffffffffffffffffffffffffffff168152602001806020018373ffffffffffffffffffffffffffffffffffffffff1673ffffffffffffffffffffffffffffffffffffffff168152602001828103825284818151815260200191508051906020019080838360005b83811015610be3578082015181840152602081019050610bc8565b50505050905090810190601f168015610c105780820380516001836020036101000a031916815260200191505b509850505050505050505060405180910390f35b348015610c3057600080fd5b50610c65600480360381019080803573ffffffffffffffffffffffffffffffffffffffff1690602001909291905050506124af565b604051808215151515815260200191505060405180910390f35b610c9d600480360381019080803590602001909291905050506124cc565b005b348015610cab57600080fd5b50610cb461276c565b005b610cd460048036038101908080359060200190929190505050612777565b005b806000600b811115610ce457fe5b60076000838152602001908152602001600020600b0160009054906101000a900460ff16600b811115610d1357fe5b141515610d1f57600080fd5b6007600083815260200190815260200160002060030160009054906101000a900473ffffffffffffffffffffffffffffffffffffffff168073ffffffffffffffffffffffffffffffffffffffff163373ffffffffffffffffffffffffffffffffffffffff16141515610d9057600080fd5b600160076000858152602001908152602001600020600b0160006101000a81548160ff0219169083600b811115610dc357fe5b02179055507f4b8eff8782631f8c03d01eca3d451f40f250d19ad3f1b789e76892b2cc210950836040518082815260200191505060405180910390a1505050565b6000610e1a826001612a1790919063ffffffff16565b9050919050565b610e2a33611eef565b1515610e3557600080fd5b610e3e81612aab565b50565b816006600b811115610e4f57fe5b60076000838152602001908152602001600020600b0160009054906101000a900460ff16600b811115610e7e57fe5b141515610e8a57600080fd5b81610e9481612168565b1515610e9f57600080fd5b6007600085815260200190815260200160002060020160009054906101000a900473ffffffffffffffffffffffffffffffffffffffff168073ffffffffffffffffffffffffffffffffffffffff163373ffffffffffffffffffffffffffffffffffffffff16141515610f1057600080fd5b8360076000878152602001908152602001600020600c0160006101000a81548173ffffffffffffffffffffffffffffffffffffffff021916908373ffffffffffffffffffffffffffffffffffffffff1602179055506007806000878152602001908152602001600020600b0160006101000a81548160ff0219169083600b811115610f9757fe5b02179055507f0a0129e18ef9f7d9701bf193905b86da87be8b0a5c59ae11a598d30f134429c3856040518082815260200191505060405180910390a15050505050565b806001600b811115610fe857fe5b60076000838152602001908152602001600020600b0160009054906101000a900460ff16600b81111561101757fe5b14151561102357600080fd5b6007600083815260200190815260200160002060030160009054906101000a900473ffffffffffffffffffffffffffffffffffffffff168073ffffffffffffffffffffffffffffffffffffffff163373ffffffffffffffffffffffffffffffffffffffff1614151561109457600080fd5b600260076000858152602001908152602001600020600b0160006101000a81548160ff0219169083600b8111156110c757fe5b02179055507f65ac603a633a9faad9e556f04e1de43b6bed779595b27e03438aeb6f827bb88b836040518082815260200191505060405180910390a1505050565b611111336124af565b151561111c57600080fd5b6102006040519081016040528060065481526020018881526020013373ffffffffffffffffffffffffffffffffffffffff1681526020018773ffffffffffffffffffffffffffffffffffffffff16815260200186815260200185815260200184815260200183815260200188600654018152602001828152602001600081526020016000600b8111156111ab57fe5b8152602001600073ffffffffffffffffffffffffffffffffffffffff168152602001600073ffffffffffffffffffffffffffffffffffffffff16815260200160206040519081016040528060008152508152602001600073ffffffffffffffffffffffffffffffffffffffff1681525060076000898152602001908152602001600020600082015181600001556020820151816001015560408201518160020160006101000a81548173ffffffffffffffffffffffffffffffffffffffff021916908373ffffffffffffffffffffffffffffffffffffffff16021790555060608201518160030160006101000a81548173ffffffffffffffffffffffffffffffffffffffff021916908373ffffffffffffffffffffffffffffffffffffffff16021790555060808201518160040190805190602001906112ec929190612eda565b5060a0820151816005019080519060200190611309929190612eda565b5060c0820151816006019080519060200190611326929190612eda565b5060e0820151816007019080519060200190611343929190612eda565b50610100820151816008015561012082015181600901908051906020019061136c929190612eda565b5061014082015181600a015561016082015181600b0160006101000a81548160ff0219169083600b81111561139d57fe5b021790555061018082015181600b0160016101000a81548173ffffffffffffffffffffffffffffffffffffffff021916908373ffffffffffffffffffffffffffffffffffffffff1602179055506101a082015181600c0160006101000a81548173ffffffffffffffffffffffffffffffffffffffff021916908373ffffffffffffffffffffffffffffffffffffffff1602179055506101c082015181600d01908051906020019061144f929190612eda565b506101e082015181600e0160006101000a81548173ffffffffffffffffffffffffffffffffffffffff021916908373ffffffffffffffffffffffffffffffffffffffff1602179055509050506001600654016006819055507fe533e271e378877c0138e2f07282f1d84cf905c00da6c396d1300ff4b823899d876040518082815260200191505060405180910390a150505050505050565b6114f033610e04565b15156114fb57600080fd5b61150481612b05565b50565b600460009054906101000a900473ffffffffffffffffffffffffffffffffffffffff1673ffffffffffffffffffffffffffffffffffffffff163373ffffffffffffffffffffffffffffffffffffffff16141561159857600460009054906101000a900473ffffffffffffffffffffffffffffffffffffffff1673ffffffffffffffffffffffffffffffffffffffff16ff5b565b816008600b8111156115a857fe5b60076000838152602001908152602001600020600b0160009054906101000a900460ff16600b8111156115d757fe5b1415156115e357600080fd5b6007600084815260200190815260200160002060020160009054906101000a900473ffffffffffffffffffffffffffffffffffffffff168073ffffffffffffffffffffffffffffffffffffffff163373ffffffffffffffffffffffffffffffffffffffff1614151561165457600080fd5b8260076000868152602001908152602001600020600d01908051906020019061167e929190612f5a565b50600960076000868152602001908152602001600020600b0160006101000a81548160ff0219169083600b8111156116b257fe5b02179055507f32ab3662126e21447b929d7534061abb800b9a1df5eba53714eab638ff968fbf846040518082815260200191505060405180910390a150505050565b6116fd33612b5f565b565b61170833612bb9565b565b6000806060806000606060006007600089815260200190815260200160002060000154965086600760008a815260200190815260200160002060010154965086600760008b81526020019081526020016000206006018054600181600116156101000203166002900480601f0160208091040260200160405190810160405280929190818152602001828054600181600116156101000203166002900480156117f45780601f106117c9576101008083540402835291602001916117f4565b820191906000526020600020905b8154815290600101906020018083116117d757829003601f168201915b5050505050965086600760008c81526020019081526020016000206007018054600181600116156101000203166002900480601f0160208091040260200160405190810160405280929190818152602001828054600181600116156101000203166002900480156118a65780601f1061187b576101008083540402835291602001916118a6565b820191906000526020600020905b81548152906001019060200180831161188957829003601f168201915b5050505050965086600760008d815260200190815260200160002060080154965086600760008e81526020019081526020016000206009018054600181600116156101000203166002900480601f0160208091040260200160405190810160405280929190818152602001828054600181600116156101000203166002900480156119725780601f1061194757610100808354040283529160200191611972565b820191906000526020600020905b81548152906001019060200180831161195557829003601f168201915b5050505050965086600760008f8152602001908152602001600020600a01549650869650965096509650965096509650919395979092949650565b6119b633612168565b15156119c157600080fd5b6119ca81612c13565b50565b60008060008060608060076000888152602001908152602001600020600001549550856007600089815260200190815260200160002060010154955085600760008a815260200190815260200160002060020160009054906101000a900473ffffffffffffffffffffffffffffffffffffffff16955085600760008b815260200190815260200160002060030160009054906101000a900473ffffffffffffffffffffffffffffffffffffffff16955085600760008c81526020019081526020016000206004018054600181600116156101000203166002900480601f016020809104026020016040519081016040528092919081815260200182805460018160011615610100020316600290048015611b285780601f10611afd57610100808354040283529160200191611b28565b820191906000526020600020905b815481529060010190602001808311611b0b57829003601f168201915b5050505050955085600760008d81526020019081526020016000206005018054600181600116156101000203166002900480601f016020809104026020016040519081016040528092919081815260200182805460018160011615610100020316600290048015611bda5780601f10611baf57610100808354040283529160200191611bda565b820191906000526020600020905b815481529060010190602001808311611bbd57829003601f168201915b505050505095508595509550955095509550955091939550919395565b816009600b811115611c0557fe5b60076000838152602001908152602001600020600b0160009054906101000a900460ff16600b811115611c3457fe5b141515611c4057600080fd5b6007600084815260200190815260200160002060020160009054906101000a900473ffffffffffffffffffffffffffffffffffffffff168073ffffffffffffffffffffffffffffffffffffffff163373ffffffffffffffffffffffffffffffffffffffff16141515611cb157600080fd5b8260076000868152602001908152602001600020600a0181905550600a60076000868152602001908152602001600020600b0160006101000a81548160ff0219169083600b811115611cff57fe5b02179055507fee6948c90faa51001d5eb44839433b7fd03a7cb7c76f6005e6cb8a59c2a794e9846040518082815260200191505060405180910390a150505050565b806007600b811115611d4f57fe5b60076000838152602001908152602001600020600b0160009054906101000a900460ff16600b811115611d7e57fe5b141515611d8a57600080fd5b60076000838152602001908152602001600020600c0160009054906101000a900473ffffffffffffffffffffffffffffffffffffffff168073ffffffffffffffffffffffffffffffffffffffff163373ffffffffffffffffffffffffffffffffffffffff16141515611dfb57600080fd5b336007600085815260200190815260200160002060020160006101000a81548173ffffffffffffffffffffffffffffffffffffffff021916908373ffffffffffffffffffffffffffffffffffffffff160217905550600860076000858152602001908152602001600020600b0160006101000a81548160ff0219169083600b811115611e8357fe5b02179055507feba13c7bce1c2327523660cf35e490f2e635925605f0e3b3a085916e971c2e31836040518082815260200191505060405180910390a1505050565b611ecd336124af565b1515611ed857600080fd5b611ee181612c6d565b50565b611eed33612cc7565b565b6000611f05826003612a1790919063ffffffff16565b9050919050565b806004600b811115611f1a57fe5b60076000838152602001908152602001600020600b0160009054906101000a900460ff16600b811115611f4957fe5b141515611f5557600080fd5b6007600083815260200190815260200160002060020160009054906101000a900473ffffffffffffffffffffffffffffffffffffffff168073ffffffffffffffffffffffffffffffffffffffff163373ffffffffffffffffffffffffffffffffffffffff16141515611fc657600080fd5b600560076000858152602001908152602001600020600b0160006101000a81548160ff0219169083600b811115611ff957fe5b02179055507ffc915768f0547b27b70dae743ed905692e0afd0fabecbcb57dc591d96c65be78836040518082815260200191505060405180910390a1505050565b806005600b81111561204857fe5b60076000838152602001908152602001600020600b0160009054906101000a900460ff16600b81111561207757fe5b14151561208357600080fd5b6007600083815260200190815260200160002060020160009054906101000a900473ffffffffffffffffffffffffffffffffffffffff168073ffffffffffffffffffffffffffffffffffffffff163373ffffffffffffffffffffffffffffffffffffffff161415156120f457600080fd5b600660076000858152602001908152602001600020600b0160006101000a81548160ff0219169083600b81111561212757fe5b02179055507f958137a1c8ad07703086ad5d3e71d5821f3110377d36d99d3e2aea02007ec61b836040518082815260200191505060405180910390a1505050565b600061217e826002612a1790919063ffffffff16565b9050919050565b816002600b81111561219357fe5b60076000838152602001908152602001600020600b0160009054906101000a900460ff16600b8111156121c257fe5b1415156121ce57600080fd5b6007600084815260200190815260200160002060030160009054906101000a900473ffffffffffffffffffffffffffffffffffffffff168073ffffffffffffffffffffffffffffffffffffffff163373ffffffffffffffffffffffffffffffffffffffff1614151561223f57600080fd5b8260076000868152602001908152602001600020600a0181905550600360076000868152602001908152602001600020600b0160006101000a81548160ff0219169083600b81111561228d57fe5b02179055507fa32310e5504e5df1cec141bcd85b409b74553f9b33665d857552c6051ef967dd846040518082815260200191505060405180910390a150505050565b6000806000806000606060006007600089815260200190815260200160002060000154965086600760008a815260200190815260200160002060010154965086600760008b8152602001908152602001600020600b0160009054906101000a900460ff16965086600760008c8152602001908152602001600020600b0160019054906101000a900473ffffffffffffffffffffffffffffffffffffffff16965086600760008d8152602001908152602001600020600c0160009054906101000a900473ffffffffffffffffffffffffffffffffffffffff16965086600760008e8152602001908152602001600020600d018054600181600116156101000203166002900480601f0160208091040260200160405190810160405280929190818152602001828054600181600116156101000203166002900480156124545780601f1061242957610100808354040283529160200191612454565b820191906000526020600020905b81548152906001019060200180831161243757829003601f168201915b5050505050965086600760008f8152602001908152602001600020600e0160009054906101000a900473ffffffffffffffffffffffffffffffffffffffff169650869650965096509650965096509650919395979092949650565b60006124c5826000612a1790919063ffffffff16565b9050919050565b80600a600b8111156124da57fe5b60076000838152602001908152602001600020600b0160009054906101000a900460ff16600b81111561250957fe5b14151561251557600080fd5b61251e33611eef565b151561252957600080fd5b60076000838152602001908152602001600020600a015480341015151561254f57600080fd5b82600080336007600088815260200190815260200160002060020160006101000a81548173ffffffffffffffffffffffffffffffffffffffff021916908373ffffffffffffffffffffffffffffffffffffffff1602179055503360076000888152602001908152602001600020600e0160006101000a81548173ffffffffffffffffffffffffffffffffffffffff021916908373ffffffffffffffffffffffffffffffffffffffff160217905550600b60076000888152602001908152602001600020600b0160006101000a81548160ff0219169083600b81111561263057fe5b021790555060076000878152602001908152602001600020600c0160009054906101000a900473ffffffffffffffffffffffffffffffffffffffff1673ffffffffffffffffffffffffffffffffffffffff166108fc60076000898152602001908152602001600020600a01549081150290604051600060405180830381858888f193505050501580156126c7573d6000803e3d6000fd5b507f698279d63e8cf3306845576d87e07c497f6b5e3fd25a6f6a9b630bab3de6aebc866040518082815260200191505060405180910390a160076000848152602001908152602001600020600a0154915081340390503373ffffffffffffffffffffffffffffffffffffffff166108fc829081150290604051600060405180830381858888f19350505050158015612763573d6000803e3d6000fd5b50505050505050565b61277533612d21565b565b806003600b81111561278557fe5b60076000838152602001908152602001600020600b0160009054906101000a900460ff16600b8111156127b457fe5b1415156127c057600080fd5b6127c933610e04565b15156127d457600080fd5b60076000838152602001908152602001600020600a01548034101515156127fa57600080fd5b82600080336007600088815260200190815260200160002060020160006101000a81548173ffffffffffffffffffffffffffffffffffffffff021916908373ffffffffffffffffffffffffffffffffffffffff1602179055503360076000888152602001908152602001600020600b0160016101000a81548173ffffffffffffffffffffffffffffffffffffffff021916908373ffffffffffffffffffffffffffffffffffffffff160217905550600460076000888152602001908152602001600020600b0160006101000a81548160ff0219169083600b8111156128db57fe5b02179055506007600087815260200190815260200160002060030160009054906101000a900473ffffffffffffffffffffffffffffffffffffffff1673ffffffffffffffffffffffffffffffffffffffff166108fc60076000898152602001908152602001600020600a01549081150290604051600060405180830381858888f19350505050158015612972573d6000803e3d6000fd5b507fe53260d846850858c09375b7a9db20f12178dbe29dc5902eb18dd0f96dfb75ed866040518082815260200191505060405180910390a160076000848152602001908152602001600020600a0154915081340390503373ffffffffffffffffffffffffffffffffffffffff166108fc829081150290604051600060405180830381858888f19350505050158015612a0e573d6000803e3d6000fd5b50505050505050565b60008073ffffffffffffffffffffffffffffffffffffffff168273ffffffffffffffffffffffffffffffffffffffff1614151515612a5457600080fd5b8260000160008373ffffffffffffffffffffffffffffffffffffffff1673ffffffffffffffffffffffffffffffffffffffff16815260200190815260200160002060009054906101000a900460ff16905092915050565b612abf816003612d7b90919063ffffffff16565b8073ffffffffffffffffffffffffffffffffffffffff167f28b26e7a3d20aedbc5f8f2ebf7da671c0491723a2b78f47a097b0e46dee0714260405160405180910390a250565b612b19816001612d7b90919063ffffffff16565b8073ffffffffffffffffffffffffffffffffffffffff167f6fdc0147105e43e21da80a75b42d0fd464060d5e1a34b0cefbf0b4ccfc2e36a160405160405180910390a250565b612b73816003612e2b90919063ffffffff16565b8073ffffffffffffffffffffffffffffffffffffffff167fe3f5ed5f263f1f01764a96edfc7d025f511ec5f7d180e8816908b78bcf74f09860405160405180910390a250565b612bcd816002612e2b90919063ffffffff16565b8073ffffffffffffffffffffffffffffffffffffffff167f126174f6cf49c81cdb4a9214c6b8f037bef55b4ec31e4fc776cea2a1c8a88d5960405160405180910390a250565b612c27816002612d7b90919063ffffffff16565b8073ffffffffffffffffffffffffffffffffffffffff167fddbf200aa634dc3fb81cfd68583dd1040d1c751d335e1d86b631bde3e977fea860405160405180910390a250565b612c81816000612d7b90919063ffffffff16565b8073ffffffffffffffffffffffffffffffffffffffff167f2e0ded4123377a3c2bc9a26f1717655a129e2f20752924d42e730ec89c83dbd060405160405180910390a250565b612cdb816000612e2b90919063ffffffff16565b8073ffffffffffffffffffffffffffffffffffffffff167fa5e0f060af304ab17dd418c7927e3da3ae7868189bf387aee09ab179ccc572f260405160405180910390a250565b612d35816001612e2b90919063ffffffff16565b8073ffffffffffffffffffffffffffffffffffffffff167fafa2737b2090fa39c66b7348625f0c03726240f724defbc6216d679506f9444160405160405180910390a250565b600073ffffffffffffffffffffffffffffffffffffffff168173ffffffffffffffffffffffffffffffffffffffff1614151515612db757600080fd5b612dc18282612a17565b151515612dcd57600080fd5b60018260000160008373ffffffffffffffffffffffffffffffffffffffff1673ffffffffffffffffffffffffffffffffffffffff16815260200190815260200160002060006101000a81548160ff0219169083151502179055505050565b600073ffffffffffffffffffffffffffffffffffffffff168173ffffffffffffffffffffffffffffffffffffffff1614151515612e6757600080fd5b612e718282612a17565b1515612e7c57600080fd5b60008260000160008373ffffffffffffffffffffffffffffffffffffffff1673ffffffffffffffffffffffffffffffffffffffff16815260200190815260200160002060006101000a81548160ff0219169083151502179055505050565b828054600181600116156101000203166002900490600052602060002090601f016020900481019282601f10612f1b57805160ff1916838001178555612f49565b82800160010185558215612f49579182015b82811115612f48578251825591602001919060010190612f2d565b5b509050612f569190612fda565b5090565b828054600181600116156101000203166002900490600052602060002090601f016020900481019282601f10612f9b57805160ff1916838001178555612fc9565b82800160010185558215612fc9579182015b82811115612fc8578251825591602001919060010190612fad565b5b509050612fd69190612fda565b5090565b612ffc91905b80821115612ff8576000816000905550600101612fe0565b5090565b905600a165627a7a72305820a80be692c78c52d8cce43b73dd61cb41d03df66b22ee43e51e915dd4ccf181f80029",
  "source": "pragma solidity ^0.4.24;\n// Import the libraries of different roles\nimport \"../chocolateaccesscontrol/FarmerRole.sol\";\nimport \"../chocolateaccesscontrol/FactoryRole.sol\";\nimport \"../chocolateaccesscontrol/DistributorRole.sol\";\nimport \"../chocolateaccesscontrol/ConsumerRole.sol\";\n// Define a contract 'Supplychain'\ncontract SupplyChain is FarmerRole, FactoryRole, DistributorRole, ConsumerRole {\n\n  // Define 'owner'\n  address owner;\n\n  // Define a variable called 'upc' for Universal Product Code (UPC)\n  uint  upc;\n\n  // Define a variable called 'sku' for Stock Keeping Unit (SKU)\n  uint  sku;\n\n  // Define a public mapping 'items' that maps the UPC to an Item.\n  mapping (uint => Item) items;\n\n  // Define a public mapping 'itemsHistory' that maps the UPC to an array of TxHash, \n  // that track its journey through the supply chain -- to be sent from DApp.\n  mapping (uint => string[]) itemsHistory;\n  \n  // Define enum 'State' with the following values:\n  enum State \n  { \n    BeansHarvested,  // 0\n    BeansProcessed,  // 1\n    BeansPacked,     // 2\n    BeansForSale,    // 3\n    BeansSold,       // 4\n    BeansGround,    // 5\n    ChocolateMade,    // 6\n    ChocolateShipped,  // 7\n    ChocolateReceived,  // 8\n    ChocolateBranded, // 9\n    ChocolateForSale, // 10\n    ChocolateSold   // 11\n    }\n\n  State constant defaultState = State.BeansHarvested;\n\n  // Define a struct 'Item' with the following fields:\n  struct Item {\n    uint    sku;  // Stock Keeping Unit (SKU)\n    uint    upc; // Universal Product Code (UPC), generated by the Farmer, goes on the package, can be verified by the Consumer\n    address ownerID;  // Metamask-Ethereum address of the current owner as the product moves through 8 stages\n    address originFarmerID; // Metamask-Ethereum address of the Farmer\n    string  originFarmName; // Farmer Name\n    string  originFarmInformation;  // Farmer Information\n    string  originFarmLatitude; // Farm Latitude\n    string  originFarmLongitude;  // Farm Longitude\n    uint    productID;  // Product ID potentially a combination of upc + sku\n    string  productNotes; // Product Notes\n    uint    productPrice; // Product Price\n    State   itemState;  // Product State as represented in the enum above\n    address factoryID; // Metamask-Ethereum address of the Chocolate Factory\n    address distributorID;  // Metamask-Ethereum address of the Distributor\n    string chocolateBrand; // Brand that with which the distributor labels the chocolate\n    address consumerID; // Metamask-Ethereum address of the Consumer\n  }\n\n  // Define 8 events with the same 8 state values and accept 'upc' as input argument\n  event BeansHarvested(uint upc);\n  event BeansProcessed(uint upc);\n  event BeansPacked(uint upc);\n  event BeansForSale(uint upc);\n  event BeansSold(uint upc);\n  event BeansShipped(uint upc);\n  event BeansGround(uint upc);\n  event ChocolateMade(uint upc);\n  event ChocolateShipped(uint upc);\n  event ChocolateReceived(uint upc);\n  event ChocolateBranded (uint upc);\n  event ChocolateForSale (uint upc);\n  event ChocolateSold (uint upc);\n\n  // Define a modifer that checks to see if msg.sender == owner of the contract\n  modifier onlyOwner() {\n    require(msg.sender == owner);\n    _;\n  }\n\n  // Define a modifer that verifies the Caller\n  modifier verifyCaller (address _address) {\n    require(msg.sender == _address); \n    _;\n  }\n\n  // Define a modifier that checks if the paid amount is sufficient to cover the price\n  modifier paidEnough(uint _price) { \n    require(msg.value >= _price); \n    _;\n  }\n  \n  // Define a modifier that checks the price and refunds the remaining balance\n  modifier checkValue(uint _upc) {\n    _;\n    uint _price = items[_upc].productPrice;\n    uint amountToReturn = msg.value - _price;\n    // The excess balance will be sent to msg.sender, not items[_upc].consumerID\n    msg.sender.transfer(amountToReturn);\n  }\n\n  // Define a modifier that checks if an item.state of a upc is BeansHarvested\n  modifier beansHarvested(uint _upc) {\n    require(items[_upc].itemState == State.BeansHarvested);\n    _;\n  }\n\n  // Define a modifier that checks if an item.state of a upc is BeansProcessed\n  modifier beansProcessed(uint _upc) {\n    require(items[_upc].itemState == State.BeansProcessed);\n    _;\n  }\n  \n  // Define a modifier that checks if an item.state of a upc is BeansPacked\n  modifier beansPacked(uint _upc) {\n    require(items[_upc].itemState == State.BeansPacked);\n    _;\n  }\n\n  // Define a modifier that checks if an item.state of a upc is BeansForSale\n  modifier beansForSale(uint _upc) {\n    require(items[_upc].itemState == State.BeansForSale);\n    _;\n  }\n\n  // Define a modifier that checks if an item.state of a upc is BeansSold\n  modifier beansSold(uint _upc) {\n    require(items[_upc].itemState == State.BeansSold);\n    _;\n  }\n\n    // Define a modifier that checks if an item.state of a upc is BeansGround\n  modifier beansGround(uint _upc) {\n    require(items[_upc].itemState == State.BeansGround);\n    _;\n  }\n\n      // Define a modifier that checks if an item.state of a upc is ChocolateMade\n  modifier chocolateMade(uint _upc) {\n    require(items[_upc].itemState == State.ChocolateMade);\n    _;\n  }\n  \n  // Define a modifier that checks if an item.state of a upc is ChocolateShipped\n  modifier chocolateShipped(uint _upc) {\n    require(items[_upc].itemState == State.ChocolateShipped);\n    _;\n  }\n\n  // Define a modifier that checks if an item.state of a upc is ChocolateReceived\n  modifier chocolateReceived(uint _upc) {\n    require(items[_upc].itemState == State.ChocolateReceived);\n    _;\n  }\n\n  // Define a modifier that checks if an item.state of a upc is ChocolateBranded\n  modifier chocolateBranded(uint _upc) {\n    require(items[_upc].itemState == State.ChocolateBranded);\n    _;\n  }\n\n    // Define a modifier that checks if an item.state of a upc is ChocolateForSale\n  modifier chocolateForSale(uint _upc) {\n    require(items[_upc].itemState == State.ChocolateForSale);\n    _;\n  }\n\n      // Define a modifier that checks if an address belongs to a distributor\n  modifier checkDistributor(address account) {\n    require(isDistributor(account));\n    _;\n  }\n\n  // Define a modifier that checks if an item.state of a upc is Purchased\n  modifier chocolateSold(uint _upc) {\n    require(items[_upc].itemState == State.ChocolateSold);    \n    _;\n  }\n\n  // In the constructor set 'owner' to the address that instantiated the contract\n  // and set 'sku' to 1\n  // and set 'upc' to 1\n  constructor() public payable {\n    owner = msg.sender;\n    sku = 1;\n    upc = 1;\n  }\n\n  // Define a function 'kill' if required\n  function kill() public {\n    if (msg.sender == owner) {\n      selfdestruct(owner);\n    }\n  }\n\n  // Define a function 'harvestBeans' that allows a farmer to mark an item 'BeansHarvested'\n  function harvestBeans(uint _upc, address _originFarmerID, string _originFarmName, string _originFarmInformation, string  _originFarmLatitude, string  _originFarmLongitude, string  _productNotes) public\n  // Access Control List enforced by calling Smart Contract / DApp\n  onlyFarmer\n  {\n    // Add the new item as part of Harvest\n    items[_upc] = Item({\n      sku: sku,\n      upc: _upc,\n      ownerID: msg.sender,\n      originFarmerID: _originFarmerID,\n      originFarmName: _originFarmName,\n      originFarmInformation: _originFarmInformation,\n      originFarmLatitude: _originFarmLatitude,\n      originFarmLongitude: _originFarmLongitude,\n      productID: sku + _upc,\n      productNotes: _productNotes,\n      productPrice: 0,\n      itemState: defaultState,\n      factoryID: 0x0,\n      distributorID: 0x0,\n      chocolateBrand: \"\",\n      consumerID: 0x0\n    });    \n    // Increment sku\n    sku = sku + 1;\n    // Emit the appropriate event\n    emit BeansHarvested(_upc);\n  }\n\n  // Define a function 'processtBeans' that allows a farmer to mark beans 'BeansProcessed'\n  function processBeans(uint _upc) public \n  // Call modifier to check if upc has passed previous supply chain stage\n  beansHarvested(_upc)\n  // Call modifier to verify caller of this function\n  verifyCaller(items[_upc].originFarmerID)\n  {\n    // Update the appropriate fields\n    items[_upc].itemState = State.BeansProcessed;\n    // Emit the appropriate event\n    emit BeansProcessed(_upc);    \n  }\n\n  // Define a function 'packBeans' that allows a farmer to mark beans 'BeansPacked'\n  function packBeans(uint _upc) public \n  // Call modifier to check if upc has passed previous supply chain stage\n  beansProcessed(_upc)\n  // Call modifier to verify caller of this function\n  verifyCaller(items[_upc].originFarmerID)\n  {\n    // Update the appropriate fields\n    items[_upc].itemState = State.BeansPacked;\n    // Emit the appropriate event\n    emit BeansPacked(_upc);\n  }\n\n  // Define a function 'sellBeans' that allows a farmer to mark beans 'BeansForSale'\n  function sellBeans(uint _upc, uint _price) public \n  // Call modifier to check if upc has passed previous supply chain stage\n  beansPacked(_upc)\n  // Call modifier to verify caller of this function\n  verifyCaller(items[_upc].originFarmerID)\n  {\n    // Update the appropriate fields\n    items[_upc].productPrice = _price;\n    items[_upc].itemState = State.BeansForSale;\n    // Emit the appropriate event\n    emit BeansForSale(_upc);    \n  }\n\n  // Define a function 'buyBeans' that allows the chocolate a factory to mark an item 'BeansSold'\n  // Use the above defined modifiers to check if the item is available for sale, if the buyer has paid enough, \n  // and any excess ether sent is refunded back to the buyer\n  function buyBeans(uint _upc) public payable \n    // Call modifier to check if upc has passed previous supply chain stage\n    beansForSale(_upc)\n    // Access Control List enforced by calling Smart Contract / DApp\n    onlyFactory\n    // Call modifer to check if buyer has paid enough\n    paidEnough(items[_upc].productPrice)\n    // Call modifer to send any excess ether back to buyer\n    checkValue(_upc)\n    {    \n    // Update the appropriate fields - ownerID, distributorID, itemState\n    items[_upc].ownerID = msg.sender;\n    items[_upc].factoryID = msg.sender;\n    items[_upc].itemState = State.BeansSold;\n    // Transfer money to farmer\n    items[_upc].originFarmerID.transfer(items[_upc].productPrice);\n    // emit the appropriate event\n    emit BeansSold(_upc);\n  }\n\n      // Define a function 'grindBeans' that allows the factory to mark an item 'BeansGround'\n  // Use the above modifers to check if the item is sold\n  function grindBeans(uint _upc) public \n    // Call modifier to check if upc has passed previous supply chain stage\n    beansSold(_upc)\n    // Call modifier to verify caller of this function\n    verifyCaller(items[_upc].ownerID)\n    {\n    // Update the appropriate fields\n    items[_upc].itemState = State.BeansGround;\n    // Emit the appropriate event\n    emit BeansGround(_upc);    \n  }\n\n    // Define a function 'makeChocolate' that allows the factory to mark an item 'ChocolateMade'\n  // Use the above modifers to check if the beans have been ground\n  function makeChocolate(uint _upc) public \n    // Call modifier to check if upc has passed previous supply chain stage\n    beansGround(_upc)\n    // Call modifier to verify caller of this function\n    verifyCaller(items[_upc].ownerID)\n    {\n    // Update the appropriate fields\n    items[_upc].itemState = State.ChocolateMade;\n    // Emit the appropriate event\n    emit ChocolateMade(_upc);\n  }\n\n  // Define a function 'shipChocolate' that allows the factory to mark an item 'ChocolateShipped' and set the distributor\n  // Use the above modifers to check if the item is sold\n  function shipChocolate(uint _upc, address _distributor) public \n    // Call modifier to check if upc has passed previous supply chain stage\n    chocolateMade(_upc)\n    // Access Control List enforced by calling Smart Contract / DApp\n    checkDistributor(_distributor)\n    // Call modifier to verify caller of this function\n    verifyCaller(items[_upc].ownerID)\n    {\n    // Update the appropriate fields. The factory sets the distributorID field\n    items[_upc].distributorID = _distributor;\n    items[_upc].itemState = State.ChocolateShipped;\n    // Emit the appropriate event\n    emit ChocolateShipped(_upc);    \n  }\n\n  // Define a function 'receiveChocolate' that allows the retailer to mark an item 'ChocolateReceived'\n  // Use the above modifiers to check if the item is shipped\n  function receiveChocolate(uint _upc) public \n    // Call modifier to check if upc has passed previous supply chain stage\n    chocolateShipped(_upc)\n    // Call modifier to verify caller of this function\n    verifyCaller(items[_upc].distributorID)\n    {\n    // Update the appropriate fields - ownerID, itemState\n    items[_upc].ownerID = msg.sender;\n    items[_upc].itemState = State.ChocolateReceived;    \n    // Emit the appropriate event\n    emit ChocolateReceived(_upc);\n  }\n\n    // Define a function 'brandChocolate' that allows the distributor to set the chocolateField of and item and mark it 'ChocolateBranded'\n  // Use the above modifiers to check if the item is received\n  function brandChocolate(uint _upc, string _brand) public \n    // Call modifier to check if upc has passed previous supply chain stage\n    chocolateReceived(_upc)\n    // Call modifier to verify caller of this function\n    verifyCaller(items[_upc].ownerID)\n    {\n    // Update the appropriate fields - chocolateBrand, itemState\n    items[_upc].chocolateBrand = _brand;\n    items[_upc].itemState = State.ChocolateBranded;    \n    // Emit the appropriate event\n    emit ChocolateBranded(_upc);\n  }\n\n      // Define a function 'sellChocolate' that allows the distributor to mark an item 'ChocolateForSale'\n  // Use the above modifiers to check if the item is branded\n  function sellChocolate(uint _upc, uint _price) public \n    // Call modifier to check if upc has passed previous supply chain stage\n    chocolateBranded(_upc)\n    // Call modifier to verify caller of this function\n    verifyCaller(items[_upc].ownerID)\n    {\n    // Update the appropriate fields - productPrice, itemState\n    items[_upc].productPrice = _price;\n    items[_upc].itemState = State.ChocolateForSale;    \n    // Emit the appropriate event\n    emit ChocolateForSale(_upc);\n  }\n\n  // Define a function 'purchaseItem' that allows the consumer to mark an item 'Purchased'\n  // Use the above modifiers to check if the item is received\n  function purchaseItem(uint _upc) public payable\n    // Call modifier to check if upc has passed previous supply chain stage\n    chocolateForSale(_upc)    \n    // Access Control List enforced by calling Smart Contract / DApp\n    onlyConsumer\n    // Call modifer to check if buyer has paid enough\n    paidEnough(items[_upc].productPrice)\n    // Call modifer to send any excess ether back to buyer\n    checkValue(_upc)\n    {\n    // Update the appropriate fields - ownerID, consumerID, itemState\n    items[_upc].ownerID = msg.sender;\n    items[_upc].consumerID = msg.sender;\n    items[_upc].itemState = State.ChocolateSold;\n    // Transfer money to distributor\n    items[_upc].distributorID.transfer(items[_upc].productPrice);    \n    // Emit the appropriate event\n    emit ChocolateSold(_upc);\n  }\n\n  // Getting a 'CompilerError: Stack too deep, try removing local variables'\n  // therefore three buffers will be used\n  // Define a function 'fetchItemBufferOne' that fetches the data\n  function fetchItemBufferOne(uint _upc) public view returns \n  (\n  uint    itemSKU,\n  uint    itemUPC,\n  address ownerID,\n  address originFarmerID,\n  string  originFarmName,\n  string  originFarmInformation\n  ) \n  {\n  // Assign values to the 8 parameters\n  \n    \n  return \n  (\n  itemSKU = items[_upc].sku,\n  itemUPC = items[_upc].upc,\n  ownerID = items[_upc].ownerID,\n  originFarmerID = items[_upc].originFarmerID,\n  originFarmName = items[_upc].originFarmName,\n  originFarmInformation = items[_upc].originFarmInformation\n  );\n  }\n\n  // Define a function 'fetchItemBufferTwo' that fetches the data\n  function fetchItemBufferTwo(uint _upc) public view returns \n  (\n  uint    itemSKU,\n  uint    itemUPC,\n  string  originFarmLatitude,\n  string  originFarmLongitude,  \n  uint    productID,\n  string  productNotes,\n  uint    productPrice\n  ) \n  {\n    // Assign values to the 10 parameters\n  \n    \n  return \n  (\n  itemSKU = items[_upc].sku,\n  itemUPC = items[_upc].upc,\n  originFarmLatitude = items[_upc].originFarmLatitude,\n  originFarmLongitude = items[_upc].originFarmLongitude,  \n  productID = items[_upc].productID,\n  productNotes = items[_upc].productNotes,\n  productPrice = items[_upc].productPrice\n  );\n  }\n\n    // Define a function 'fetchItemBufferThree' that fetches the data\n  function fetchItemBufferThree(uint _upc) public view returns \n  (\n  uint    itemSKU,\n  uint    itemUPC,\n  State    itemState,\n  address factoryID,\n  address distributorID,\n  string  chocolateBrand,\n  address consumerID\n  ) \n  {\n    // Assign values to the 10 parameters\n  \n    \n  return \n  (\n  itemSKU = items[_upc].sku,\n  itemUPC = items[_upc].upc,\n  itemState = items[_upc].itemState,\n  factoryID = items[_upc].factoryID,\n  distributorID = items[_upc].distributorID,\n  chocolateBrand = items[_upc].chocolateBrand,\n  consumerID = items[_upc].consumerID\n  );\n  }\n}",
  "sourcePath": "/mnt/c/pr0/Udacity/SupplyChain/nd1309-Project-6b-Example-Template/project-6/contracts/coffeebase/SupplyChain.sol",
  "compiler": {
    "name": "solc",
    "version": "0.4.26+commit.4563c3fc.Emscripten.clang"
  },
  "schemaVersion": "3.3.4",
  "updatedAt": "2021-05-08T22:52:21.873Z",
  "networkType": "ethereum",
  "devdoc": {
    "methods": {}
  },
  "userdoc": {
    "methods": {}
  }
}