{
  "contractName": "SupplyChain",
  "abi": [
    {
      "constant": true,
      "inputs": [
        {
          "name": "account",
          "type": "address"
        }
      ],
      "name": "isFactory",
      "outputs": [
        {
          "name": "",
          "type": "bool"
        }
      ],
      "payable": false,
      "stateMutability": "view",
      "type": "function"
    },
    {
      "constant": false,
      "inputs": [
        {
          "name": "account",
          "type": "address"
        }
      ],
      "name": "addConsumer",
      "outputs": [],
      "payable": false,
      "stateMutability": "nonpayable",
      "type": "function"
    },
    {
      "constant": false,
      "inputs": [
        {
          "name": "account",
          "type": "address"
        }
      ],
      "name": "addFactory",
      "outputs": [],
      "payable": false,
      "stateMutability": "nonpayable",
      "type": "function"
    },
    {
      "constant": false,
      "inputs": [],
      "name": "renounceConsumer",
      "outputs": [],
      "payable": false,
      "stateMutability": "nonpayable",
      "type": "function"
    },
    {
      "constant": false,
      "inputs": [],
      "name": "renounceDistributor",
      "outputs": [],
      "payable": false,
      "stateMutability": "nonpayable",
      "type": "function"
    },
    {
      "constant": false,
      "inputs": [],
      "name": "renounceOwnership",
      "outputs": [],
      "payable": false,
      "stateMutability": "nonpayable",
      "type": "function"
    },
    {
      "constant": false,
      "inputs": [
        {
          "name": "account",
          "type": "address"
        }
      ],
      "name": "addDistributor",
      "outputs": [],
      "payable": false,
      "stateMutability": "nonpayable",
      "type": "function"
    },
    {
      "constant": false,
      "inputs": [
        {
          "name": "account",
          "type": "address"
        }
      ],
      "name": "addFarmer",
      "outputs": [],
      "payable": false,
      "stateMutability": "nonpayable",
      "type": "function"
    },
    {
      "constant": false,
      "inputs": [],
      "name": "renounceFarmer",
      "outputs": [],
      "payable": false,
      "stateMutability": "nonpayable",
      "type": "function"
    },
    {
      "constant": true,
      "inputs": [
        {
          "name": "account",
          "type": "address"
        }
      ],
      "name": "isConsumer",
      "outputs": [
        {
          "name": "",
          "type": "bool"
        }
      ],
      "payable": false,
      "stateMutability": "view",
      "type": "function"
    },
    {
      "constant": true,
      "inputs": [],
      "name": "owner",
      "outputs": [
        {
          "name": "",
          "type": "address"
        }
      ],
      "payable": false,
      "stateMutability": "view",
      "type": "function"
    },
    {
      "constant": true,
      "inputs": [
        {
          "name": "account",
          "type": "address"
        }
      ],
      "name": "isDistributor",
      "outputs": [
        {
          "name": "",
          "type": "bool"
        }
      ],
      "payable": false,
      "stateMutability": "view",
      "type": "function"
    },
    {
      "constant": true,
      "inputs": [],
      "name": "isOwner",
      "outputs": [
        {
          "name": "",
          "type": "bool"
        }
      ],
      "payable": false,
      "stateMutability": "view",
      "type": "function"
    },
    {
      "constant": true,
      "inputs": [
        {
          "name": "account",
          "type": "address"
        }
      ],
      "name": "isFarmer",
      "outputs": [
        {
          "name": "",
          "type": "bool"
        }
      ],
      "payable": false,
      "stateMutability": "view",
      "type": "function"
    },
    {
      "constant": false,
      "inputs": [],
      "name": "renounceFactory",
      "outputs": [],
      "payable": false,
      "stateMutability": "nonpayable",
      "type": "function"
    },
    {
      "constant": false,
      "inputs": [
        {
          "name": "newOwner",
          "type": "address"
        }
      ],
      "name": "transferOwnership",
      "outputs": [],
      "payable": false,
      "stateMutability": "nonpayable",
      "type": "function"
    },
    {
      "inputs": [],
      "payable": true,
      "stateMutability": "payable",
      "type": "constructor"
    },
    {
      "anonymous": false,
      "inputs": [
        {
          "indexed": false,
          "name": "upc",
          "type": "uint256"
        }
      ],
      "name": "BeansHarvested",
      "type": "event"
    },
    {
      "anonymous": false,
      "inputs": [
        {
          "indexed": false,
          "name": "upc",
          "type": "uint256"
        }
      ],
      "name": "BeansProcessed",
      "type": "event"
    },
    {
      "anonymous": false,
      "inputs": [
        {
          "indexed": false,
          "name": "upc",
          "type": "uint256"
        }
      ],
      "name": "BeansPacked",
      "type": "event"
    },
    {
      "anonymous": false,
      "inputs": [
        {
          "indexed": false,
          "name": "upc",
          "type": "uint256"
        }
      ],
      "name": "BeansForSale",
      "type": "event"
    },
    {
      "anonymous": false,
      "inputs": [
        {
          "indexed": false,
          "name": "upc",
          "type": "uint256"
        }
      ],
      "name": "BeansSold",
      "type": "event"
    },
    {
      "anonymous": false,
      "inputs": [
        {
          "indexed": false,
          "name": "upc",
          "type": "uint256"
        }
      ],
      "name": "BeansShipped",
      "type": "event"
    },
    {
      "anonymous": false,
      "inputs": [
        {
          "indexed": false,
          "name": "upc",
          "type": "uint256"
        }
      ],
      "name": "BeansGround",
      "type": "event"
    },
    {
      "anonymous": false,
      "inputs": [
        {
          "indexed": false,
          "name": "upc",
          "type": "uint256"
        }
      ],
      "name": "ChocolateMade",
      "type": "event"
    },
    {
      "anonymous": false,
      "inputs": [
        {
          "indexed": false,
          "name": "upc",
          "type": "uint256"
        }
      ],
      "name": "ChocolateShipped",
      "type": "event"
    },
    {
      "anonymous": false,
      "inputs": [
        {
          "indexed": false,
          "name": "upc",
          "type": "uint256"
        }
      ],
      "name": "ChocolateReceived",
      "type": "event"
    },
    {
      "anonymous": false,
      "inputs": [
        {
          "indexed": false,
          "name": "upc",
          "type": "uint256"
        }
      ],
      "name": "ChocolateBranded",
      "type": "event"
    },
    {
      "anonymous": false,
      "inputs": [
        {
          "indexed": false,
          "name": "upc",
          "type": "uint256"
        }
      ],
      "name": "ChocolateForSale",
      "type": "event"
    },
    {
      "anonymous": false,
      "inputs": [
        {
          "indexed": false,
          "name": "upc",
          "type": "uint256"
        }
      ],
      "name": "ChocolateSold",
      "type": "event"
    },
    {
      "anonymous": false,
      "inputs": [
        {
          "indexed": true,
          "name": "account",
          "type": "address"
        }
      ],
      "name": "ConsumerAdded",
      "type": "event"
    },
    {
      "anonymous": false,
      "inputs": [
        {
          "indexed": true,
          "name": "account",
          "type": "address"
        }
      ],
      "name": "ConsumerRemoved",
      "type": "event"
    },
    {
      "anonymous": false,
      "inputs": [
        {
          "indexed": true,
          "name": "account",
          "type": "address"
        }
      ],
      "name": "DistributorAdded",
      "type": "event"
    },
    {
      "anonymous": false,
      "inputs": [
        {
          "indexed": true,
          "name": "account",
          "type": "address"
        }
      ],
      "name": "DistributorRemoved",
      "type": "event"
    },
    {
      "anonymous": false,
      "inputs": [
        {
          "indexed": true,
          "name": "account",
          "type": "address"
        }
      ],
      "name": "FactoryAdded",
      "type": "event"
    },
    {
      "anonymous": false,
      "inputs": [
        {
          "indexed": true,
          "name": "account",
          "type": "address"
        }
      ],
      "name": "FactoryRemoved",
      "type": "event"
    },
    {
      "anonymous": false,
      "inputs": [
        {
          "indexed": true,
          "name": "account",
          "type": "address"
        }
      ],
      "name": "FarmerAdded",
      "type": "event"
    },
    {
      "anonymous": false,
      "inputs": [
        {
          "indexed": true,
          "name": "account",
          "type": "address"
        }
      ],
      "name": "FarmerRemoved",
      "type": "event"
    },
    {
      "anonymous": false,
      "inputs": [
        {
          "indexed": true,
          "name": "oldOwner",
          "type": "address"
        },
        {
          "indexed": true,
          "name": "newOwner",
          "type": "address"
        }
      ],
      "name": "TransferOwnership",
      "type": "event"
    },
    {
      "constant": false,
      "inputs": [],
      "name": "kill",
      "outputs": [],
      "payable": false,
      "stateMutability": "nonpayable",
      "type": "function"
    },
    {
      "constant": false,
      "inputs": [
        {
          "name": "_upc",
          "type": "uint256"
        },
        {
          "name": "_originFarmerID",
          "type": "address"
        },
        {
          "name": "_originFarmName",
          "type": "string"
        },
        {
          "name": "_originFarmInformation",
          "type": "string"
        },
        {
          "name": "_originFarmLatitude",
          "type": "string"
        },
        {
          "name": "_originFarmLongitude",
          "type": "string"
        },
        {
          "name": "_productNotes",
          "type": "string"
        }
      ],
      "name": "harvestBeans",
      "outputs": [],
      "payable": false,
      "stateMutability": "nonpayable",
      "type": "function"
    },
    {
      "constant": false,
      "inputs": [
        {
          "name": "_upc",
          "type": "uint256"
        }
      ],
      "name": "processBeans",
      "outputs": [],
      "payable": false,
      "stateMutability": "nonpayable",
      "type": "function"
    },
    {
      "constant": false,
      "inputs": [
        {
          "name": "_upc",
          "type": "uint256"
        }
      ],
      "name": "packBeans",
      "outputs": [],
      "payable": false,
      "stateMutability": "nonpayable",
      "type": "function"
    },
    {
      "constant": false,
      "inputs": [
        {
          "name": "_upc",
          "type": "uint256"
        },
        {
          "name": "_price",
          "type": "uint256"
        }
      ],
      "name": "sellBeans",
      "outputs": [],
      "payable": false,
      "stateMutability": "nonpayable",
      "type": "function"
    },
    {
      "constant": false,
      "inputs": [
        {
          "name": "_upc",
          "type": "uint256"
        }
      ],
      "name": "buyBeans",
      "outputs": [],
      "payable": true,
      "stateMutability": "payable",
      "type": "function"
    },
    {
      "constant": false,
      "inputs": [
        {
          "name": "_upc",
          "type": "uint256"
        }
      ],
      "name": "grindBeans",
      "outputs": [],
      "payable": false,
      "stateMutability": "nonpayable",
      "type": "function"
    },
    {
      "constant": false,
      "inputs": [
        {
          "name": "_upc",
          "type": "uint256"
        }
      ],
      "name": "makeChocolate",
      "outputs": [],
      "payable": false,
      "stateMutability": "nonpayable",
      "type": "function"
    },
    {
      "constant": false,
      "inputs": [
        {
          "name": "_upc",
          "type": "uint256"
        },
        {
          "name": "_distributor",
          "type": "address"
        }
      ],
      "name": "shipChocolate",
      "outputs": [],
      "payable": false,
      "stateMutability": "nonpayable",
      "type": "function"
    },
    {
      "constant": false,
      "inputs": [
        {
          "name": "_upc",
          "type": "uint256"
        }
      ],
      "name": "receiveChocolate",
      "outputs": [],
      "payable": false,
      "stateMutability": "nonpayable",
      "type": "function"
    },
    {
      "constant": false,
      "inputs": [
        {
          "name": "_upc",
          "type": "uint256"
        },
        {
          "name": "_brand",
          "type": "string"
        }
      ],
      "name": "brandChocolate",
      "outputs": [],
      "payable": false,
      "stateMutability": "nonpayable",
      "type": "function"
    },
    {
      "constant": false,
      "inputs": [
        {
          "name": "_upc",
          "type": "uint256"
        },
        {
          "name": "_price",
          "type": "uint256"
        }
      ],
      "name": "sellChocolate",
      "outputs": [],
      "payable": false,
      "stateMutability": "nonpayable",
      "type": "function"
    },
    {
      "constant": false,
      "inputs": [
        {
          "name": "_upc",
          "type": "uint256"
        }
      ],
      "name": "purchaseItem",
      "outputs": [],
      "payable": true,
      "stateMutability": "payable",
      "type": "function"
    },
    {
      "constant": true,
      "inputs": [
        {
          "name": "_upc",
          "type": "uint256"
        }
      ],
      "name": "fetchItemBufferOne",
      "outputs": [
        {
          "name": "itemSKU",
          "type": "uint256"
        },
        {
          "name": "itemUPC",
          "type": "uint256"
        },
        {
          "name": "ownerID",
          "type": "address"
        },
        {
          "name": "originFarmerID",
          "type": "address"
        },
        {
          "name": "originFarmName",
          "type": "string"
        },
        {
          "name": "originFarmInformation",
          "type": "string"
        }
      ],
      "payable": false,
      "stateMutability": "view",
      "type": "function"
    },
    {
      "constant": true,
      "inputs": [
        {
          "name": "_upc",
          "type": "uint256"
        }
      ],
      "name": "fetchItemBufferTwo",
      "outputs": [
        {
          "name": "itemSKU",
          "type": "uint256"
        },
        {
          "name": "itemUPC",
          "type": "uint256"
        },
        {
          "name": "originFarmLatitude",
          "type": "string"
        },
        {
          "name": "originFarmLongitude",
          "type": "string"
        },
        {
          "name": "productID",
          "type": "uint256"
        },
        {
          "name": "productNotes",
          "type": "string"
        },
        {
          "name": "productPrice",
          "type": "uint256"
        }
      ],
      "payable": false,
      "stateMutability": "view",
      "type": "function"
    },
    {
      "constant": true,
      "inputs": [
        {
          "name": "_upc",
          "type": "uint256"
        }
      ],
      "name": "fetchItemBufferThree",
      "outputs": [
        {
          "name": "itemSKU",
          "type": "uint256"
        },
        {
          "name": "itemUPC",
          "type": "uint256"
        },
        {
          "name": "itemState",
          "type": "uint8"
        },
        {
          "name": "factoryID",
          "type": "address"
        },
        {
          "name": "distributorID",
          "type": "address"
        },
        {
          "name": "chocolateBrand",
          "type": "string"
        },
        {
          "name": "consumerID",
          "type": "address"
        }
      ],
      "payable": false,
      "stateMutability": "view",
      "type": "function"
    }
  ],
  "bytecode": "0x6080604052336000806101000a81548173ffffffffffffffffffffffffffffffffffffffff021916908373ffffffffffffffffffffffffffffffffffffffff1602179055506000809054906101000a900473ffffffffffffffffffffffffffffffffffffffff1673ffffffffffffffffffffffffffffffffffffffff16600073ffffffffffffffffffffffffffffffffffffffff167f5c486528ec3e3f0ea91181cff8116f02bfa350e03b8b6f12e00765adbb5af85c60405160405180910390a3620000da336200013e640100000000026401000000009004565b620000f433620001a8640100000000026401000000009004565b6200010e3362000212640100000000026401000000009004565b62000128336200027c640100000000026401000000009004565b600160068190555060016005819055506200043e565b62000162816001620002e6640100000000026200308b179091906401000000009004565b8073ffffffffffffffffffffffffffffffffffffffff167f2e0ded4123377a3c2bc9a26f1717655a129e2f20752924d42e730ec89c83dbd060405160405180910390a250565b620001cc816002620002e6640100000000026200308b179091906401000000009004565b8073ffffffffffffffffffffffffffffffffffffffff167f6fdc0147105e43e21da80a75b42d0fd464060d5e1a34b0cefbf0b4ccfc2e36a160405160405180910390a250565b62000236816003620002e6640100000000026200308b179091906401000000009004565b8073ffffffffffffffffffffffffffffffffffffffff167fddbf200aa634dc3fb81cfd68583dd1040d1c751d335e1d86b631bde3e977fea860405160405180910390a250565b620002a0816004620002e6640100000000026200308b179091906401000000009004565b8073ffffffffffffffffffffffffffffffffffffffff167f28b26e7a3d20aedbc5f8f2ebf7da671c0491723a2b78f47a097b0e46dee0714260405160405180910390a250565b600073ffffffffffffffffffffffffffffffffffffffff168173ffffffffffffffffffffffffffffffffffffffff16141515156200032357600080fd5b6200033e8282620003a9640100000000026401000000009004565b1515156200034b57600080fd5b60018260000160008373ffffffffffffffffffffffffffffffffffffffff1673ffffffffffffffffffffffffffffffffffffffff16815260200190815260200160002060006101000a81548160ff0219169083151502179055505050565b60008073ffffffffffffffffffffffffffffffffffffffff168273ffffffffffffffffffffffffffffffffffffffff1614151515620003e757600080fd5b8260000160008373ffffffffffffffffffffffffffffffffffffffff1673ffffffffffffffffffffffffffffffffffffffff16815260200190815260200160002060009054906101000a900460ff16905092915050565b61333b806200044e6000396000f300608060405260043610610196576000357c0100000000000000000000000000000000000000000000000000000000900463ffffffff16806304789c981461019b5780630f04ba67146101c8578063112940f91461022357806311ba62691461026657806321926861146102b3578063299077db146102e057806329ce1ec51461048b57806341c0e1b5146104ce5780635ecfe176146104e557806361e6982d14610558578063644241db1461056f57806366225ff914610586578063715018a6146107205780637250e2241461073757806377c459131461077a5780637c4f322f146109005780637ce180ca1461093757806380c3f96d1461096457806380fc0ce4146109a7578063834ff739146109be5780638774db3b14610a19578063893635e714610a465780638da5cb5b14610a735780638f0c86fa14610aca5780638f32d59b14610b255780639f5e32fa14610b54578063acd5fba614610b8b578063b942906914610ced578063d38ea5bf14610d48578063d49bdad014610d68578063dd73e51114610d7f578063f2fde38b14610d9f575b600080fd5b3480156101a757600080fd5b506101c660048036038101908080359060200190929190505050610de2565b005b3480156101d457600080fd5b50610209600480360381019080803573ffffffffffffffffffffffffffffffffffffffff169060200190929190505050610f10565b604051808215151515815260200191505060405180910390f35b34801561022f57600080fd5b50610264600480360381019080803573ffffffffffffffffffffffffffffffffffffffff169060200190929190505050610f2d565b005b34801561027257600080fd5b506102b160048036038101908080359060200190929190803573ffffffffffffffffffffffffffffffffffffffff169060200190929190505050610f4d565b005b3480156102bf57600080fd5b506102de600480360381019080803590602001909291905050506110e6565b005b3480156102ec57600080fd5b5061048960048036038101908080359060200190929190803573ffffffffffffffffffffffffffffffffffffffff169060200190929190803590602001908201803590602001908080601f0160208091040260200160405190810160405280939291908181526020018383808284378201915050505050509192919290803590602001908201803590602001908080601f0160208091040260200160405190810160405280939291908181526020018383808284378201915050505050509192919290803590602001908201803590602001908080601f0160208091040260200160405190810160405280939291908181526020018383808284378201915050505050509192919290803590602001908201803590602001908080601f0160208091040260200160405190810160405280939291908181526020018383808284378201915050505050509192919290803590602001908201803590602001908080601f0160208091040260200160405190810160405280939291908181526020018383808284378201915050505050509192919290505050611214565b005b34801561049757600080fd5b506104cc600480360381019080803573ffffffffffffffffffffffffffffffffffffffff1690602001909291905050506115f3565b005b3480156104da57600080fd5b506104e3611613565b005b3480156104f157600080fd5b5061055660048036038101908080359060200190929190803590602001908201803590602001908080601f016020809104026020016040519081016040528093929190818152602001838380828437820191505050505050919291929050505061163f565b005b34801561056457600080fd5b5061056d611799565b005b34801561057b57600080fd5b506105846117a4565b005b34801561059257600080fd5b506105b1600480360381019080803590602001909291905050506117af565b60405180888152602001878152602001806020018060200186815260200180602001858152602001848103845289818151815260200191508051906020019080838360005b838110156106115780820151818401526020810190506105f6565b50505050905090810190601f16801561063e5780820380516001836020036101000a031916815260200191505b50848103835288818151815260200191508051906020019080838360005b8381101561067757808201518184015260208101905061065c565b50505050905090810190601f1680156106a45780820380516001836020036101000a031916815260200191505b50848103825286818151815260200191508051906020019080838360005b838110156106dd5780820151818401526020810190506106c2565b50505050905090810190601f16801561070a5780820380516001836020036101000a031916815260200191505b509a505050505050505050505060405180910390f35b34801561072c57600080fd5b50610735611a52565b005b34801561074357600080fd5b50610778600480360381019080803573ffffffffffffffffffffffffffffffffffffffff169060200190929190505050611b24565b005b34801561078657600080fd5b506107a560048036038101908080359060200190929190505050611b44565b604051808781526020018681526020018573ffffffffffffffffffffffffffffffffffffffff1673ffffffffffffffffffffffffffffffffffffffff1681526020018473ffffffffffffffffffffffffffffffffffffffff1673ffffffffffffffffffffffffffffffffffffffff1681526020018060200180602001838103835285818151815260200191508051906020019080838360005b8381101561085957808201518184015260208101905061083e565b50505050905090810190601f1680156108865780820380516001836020036101000a031916815260200191505b50838103825284818151815260200191508051906020019080838360005b838110156108bf5780820151818401526020810190506108a4565b50505050905090810190601f1680156108ec5780820380516001836020036101000a031916815260200191505b509850505050505050505060405180910390f35b34801561090c57600080fd5b506109356004803603810190808035906020019092919080359060200190929190505050611d6e565b005b34801561094357600080fd5b5061096260048036038101908080359060200190929190505050611eb8565b005b34801561097057600080fd5b506109a5600480360381019080803573ffffffffffffffffffffffffffffffffffffffff16906020019092919050505061203b565b005b3480156109b357600080fd5b506109bc61205b565b005b3480156109ca57600080fd5b506109ff600480360381019080803573ffffffffffffffffffffffffffffffffffffffff169060200190929190505050612066565b604051808215151515815260200191505060405180910390f35b348015610a2557600080fd5b50610a4460048036038101908080359060200190929190505050612083565b005b348015610a5257600080fd5b50610a71600480360381019080803590602001909291905050506121b1565b005b348015610a7f57600080fd5b50610a886122df565b604051808273ffffffffffffffffffffffffffffffffffffffff1673ffffffffffffffffffffffffffffffffffffffff16815260200191505060405180910390f35b348015610ad657600080fd5b50610b0b600480360381019080803573ffffffffffffffffffffffffffffffffffffffff169060200190929190505050612308565b604051808215151515815260200191505060405180910390f35b348015610b3157600080fd5b50610b3a612325565b604051808215151515815260200191505060405180910390f35b348015610b6057600080fd5b50610b89600480360381019080803590602001909291908035906020019092919050505061237c565b005b348015610b9757600080fd5b50610bb6600480360381019080803590602001909291905050506124c6565b6040518088815260200187815260200186600b811115610bd257fe5b60ff1681526020018573ffffffffffffffffffffffffffffffffffffffff1673ffffffffffffffffffffffffffffffffffffffff1681526020018473ffffffffffffffffffffffffffffffffffffffff1673ffffffffffffffffffffffffffffffffffffffff168152602001806020018373ffffffffffffffffffffffffffffffffffffffff1673ffffffffffffffffffffffffffffffffffffffff168152602001828103825284818151815260200191508051906020019080838360005b83811015610cac578082015181840152602081019050610c91565b50505050905090810190601f168015610cd95780820380516001836020036101000a031916815260200191505b509850505050505050505060405180910390f35b348015610cf957600080fd5b50610d2e600480360381019080803573ffffffffffffffffffffffffffffffffffffffff1690602001909291905050506126a6565b604051808215151515815260200191505060405180910390f35b610d66600480360381019080803590602001909291905050506126c3565b005b348015610d7457600080fd5b50610d7d612963565b005b610d9d6004803603810190808035906020019092919050505061296e565b005b348015610dab57600080fd5b50610de0600480360381019080803573ffffffffffffffffffffffffffffffffffffffff169060200190929190505050612c0e565b005b806000600b811115610df057fe5b60076000838152602001908152602001600020600b0160009054906101000a900460ff16600b811115610e1f57fe5b141515610e2b57600080fd5b6007600083815260200190815260200160002060030160009054906101000a900473ffffffffffffffffffffffffffffffffffffffff168073ffffffffffffffffffffffffffffffffffffffff163373ffffffffffffffffffffffffffffffffffffffff16141515610e9c57600080fd5b600160076000858152602001908152602001600020600b0160006101000a81548160ff0219169083600b811115610ecf57fe5b02179055507f4b8eff8782631f8c03d01eca3d451f40f250d19ad3f1b789e76892b2cc210950836040518082815260200191505060405180910390a1505050565b6000610f26826002612c2d90919063ffffffff16565b9050919050565b610f3633612066565b1515610f4157600080fd5b610f4a81612cc1565b50565b816006600b811115610f5b57fe5b60076000838152602001908152602001600020600b0160009054906101000a900460ff16600b811115610f8a57fe5b141515610f9657600080fd5b81610fa081612308565b1515610fab57600080fd5b6007600085815260200190815260200160002060020160009054906101000a900473ffffffffffffffffffffffffffffffffffffffff168073ffffffffffffffffffffffffffffffffffffffff163373ffffffffffffffffffffffffffffffffffffffff1614151561101c57600080fd5b8360076000878152602001908152602001600020600c0160006101000a81548173ffffffffffffffffffffffffffffffffffffffff021916908373ffffffffffffffffffffffffffffffffffffffff1602179055506007806000878152602001908152602001600020600b0160006101000a81548160ff0219169083600b8111156110a357fe5b02179055507f0a0129e18ef9f7d9701bf193905b86da87be8b0a5c59ae11a598d30f134429c3856040518082815260200191505060405180910390a15050505050565b806001600b8111156110f457fe5b60076000838152602001908152602001600020600b0160009054906101000a900460ff16600b81111561112357fe5b14151561112f57600080fd5b6007600083815260200190815260200160002060030160009054906101000a900473ffffffffffffffffffffffffffffffffffffffff168073ffffffffffffffffffffffffffffffffffffffff163373ffffffffffffffffffffffffffffffffffffffff161415156111a057600080fd5b600260076000858152602001908152602001600020600b0160006101000a81548160ff0219169083600b8111156111d357fe5b02179055507f65ac603a633a9faad9e556f04e1de43b6bed779595b27e03438aeb6f827bb88b836040518082815260200191505060405180910390a1505050565b61121d336126a6565b151561122857600080fd5b6102006040519081016040528060065481526020018881526020013373ffffffffffffffffffffffffffffffffffffffff1681526020018773ffffffffffffffffffffffffffffffffffffffff16815260200186815260200185815260200184815260200183815260200188600654018152602001828152602001600081526020016000600b8111156112b757fe5b8152602001600073ffffffffffffffffffffffffffffffffffffffff168152602001600073ffffffffffffffffffffffffffffffffffffffff16815260200160206040519081016040528060008152508152602001600073ffffffffffffffffffffffffffffffffffffffff1681525060076000898152602001908152602001600020600082015181600001556020820151816001015560408201518160020160006101000a81548173ffffffffffffffffffffffffffffffffffffffff021916908373ffffffffffffffffffffffffffffffffffffffff16021790555060608201518160030160006101000a81548173ffffffffffffffffffffffffffffffffffffffff021916908373ffffffffffffffffffffffffffffffffffffffff16021790555060808201518160040190805190602001906113f89291906131ea565b5060a08201518160050190805190602001906114159291906131ea565b5060c08201518160060190805190602001906114329291906131ea565b5060e082015181600701908051906020019061144f9291906131ea565b5061010082015181600801556101208201518160090190805190602001906114789291906131ea565b5061014082015181600a015561016082015181600b0160006101000a81548160ff0219169083600b8111156114a957fe5b021790555061018082015181600b0160016101000a81548173ffffffffffffffffffffffffffffffffffffffff021916908373ffffffffffffffffffffffffffffffffffffffff1602179055506101a082015181600c0160006101000a81548173ffffffffffffffffffffffffffffffffffffffff021916908373ffffffffffffffffffffffffffffffffffffffff1602179055506101c082015181600d01908051906020019061155b9291906131ea565b506101e082015181600e0160006101000a81548173ffffffffffffffffffffffffffffffffffffffff021916908373ffffffffffffffffffffffffffffffffffffffff1602179055509050506001600654016006819055507fe533e271e378877c0138e2f07282f1d84cf905c00da6c396d1300ff4b823899d876040518082815260200191505060405180910390a150505050505050565b6115fc33610f10565b151561160757600080fd5b61161081612d1b565b50565b61161b612325565b151561162657600080fd5b3373ffffffffffffffffffffffffffffffffffffffff16ff5b816008600b81111561164d57fe5b60076000838152602001908152602001600020600b0160009054906101000a900460ff16600b81111561167c57fe5b14151561168857600080fd5b6007600084815260200190815260200160002060020160009054906101000a900473ffffffffffffffffffffffffffffffffffffffff168073ffffffffffffffffffffffffffffffffffffffff163373ffffffffffffffffffffffffffffffffffffffff161415156116f957600080fd5b8260076000868152602001908152602001600020600d01908051906020019061172392919061326a565b50600960076000868152602001908152602001600020600b0160006101000a81548160ff0219169083600b81111561175757fe5b02179055507f32ab3662126e21447b929d7534061abb800b9a1df5eba53714eab638ff968fbf846040518082815260200191505060405180910390a150505050565b6117a233612d75565b565b6117ad33612dcf565b565b6000806060806000606060006007600089815260200190815260200160002060000154965086600760008a815260200190815260200160002060010154965086600760008b81526020019081526020016000206006018054600181600116156101000203166002900480601f0160208091040260200160405190810160405280929190818152602001828054600181600116156101000203166002900480156118995780601f1061186e57610100808354040283529160200191611899565b820191906000526020600020905b81548152906001019060200180831161187c57829003601f168201915b5050505050965086600760008c81526020019081526020016000206007018054600181600116156101000203166002900480601f01602080910402602001604051908101604052809291908181526020018280546001816001161561010002031660029004801561194b5780601f106119205761010080835404028352916020019161194b565b820191906000526020600020905b81548152906001019060200180831161192e57829003601f168201915b5050505050965086600760008d815260200190815260200160002060080154965086600760008e81526020019081526020016000206009018054600181600116156101000203166002900480601f016020809104026020016040519081016040528092919081815260200182805460018160011615610100020316600290048015611a175780601f106119ec57610100808354040283529160200191611a17565b820191906000526020600020905b8154815290600101906020018083116119fa57829003601f168201915b5050505050965086600760008f8152602001908152602001600020600a01549650869650965096509650965096509650919395979092949650565b611a5a612325565b1515611a6557600080fd5b600073ffffffffffffffffffffffffffffffffffffffff166000809054906101000a900473ffffffffffffffffffffffffffffffffffffffff1673ffffffffffffffffffffffffffffffffffffffff167f5c486528ec3e3f0ea91181cff8116f02bfa350e03b8b6f12e00765adbb5af85c60405160405180910390a360008060006101000a81548173ffffffffffffffffffffffffffffffffffffffff021916908373ffffffffffffffffffffffffffffffffffffffff160217905550565b611b2d33612308565b1515611b3857600080fd5b611b4181612e29565b50565b60008060008060608060076000888152602001908152602001600020600001549550856007600089815260200190815260200160002060010154955085600760008a815260200190815260200160002060020160009054906101000a900473ffffffffffffffffffffffffffffffffffffffff16955085600760008b815260200190815260200160002060030160009054906101000a900473ffffffffffffffffffffffffffffffffffffffff16955085600760008c81526020019081526020016000206004018054600181600116156101000203166002900480601f016020809104026020016040519081016040528092919081815260200182805460018160011615610100020316600290048015611c9f5780601f10611c7457610100808354040283529160200191611c9f565b820191906000526020600020905b815481529060010190602001808311611c8257829003601f168201915b5050505050955085600760008d81526020019081526020016000206005018054600181600116156101000203166002900480601f016020809104026020016040519081016040528092919081815260200182805460018160011615610100020316600290048015611d515780601f10611d2657610100808354040283529160200191611d51565b820191906000526020600020905b815481529060010190602001808311611d3457829003601f168201915b505050505095508595509550955095509550955091939550919395565b816009600b811115611d7c57fe5b60076000838152602001908152602001600020600b0160009054906101000a900460ff16600b811115611dab57fe5b141515611db757600080fd5b6007600084815260200190815260200160002060020160009054906101000a900473ffffffffffffffffffffffffffffffffffffffff168073ffffffffffffffffffffffffffffffffffffffff163373ffffffffffffffffffffffffffffffffffffffff16141515611e2857600080fd5b8260076000868152602001908152602001600020600a0181905550600a60076000868152602001908152602001600020600b0160006101000a81548160ff0219169083600b811115611e7657fe5b02179055507fee6948c90faa51001d5eb44839433b7fd03a7cb7c76f6005e6cb8a59c2a794e9846040518082815260200191505060405180910390a150505050565b806007600b811115611ec657fe5b60076000838152602001908152602001600020600b0160009054906101000a900460ff16600b811115611ef557fe5b141515611f0157600080fd5b60076000838152602001908152602001600020600c0160009054906101000a900473ffffffffffffffffffffffffffffffffffffffff168073ffffffffffffffffffffffffffffffffffffffff163373ffffffffffffffffffffffffffffffffffffffff16141515611f7257600080fd5b336007600085815260200190815260200160002060020160006101000a81548173ffffffffffffffffffffffffffffffffffffffff021916908373ffffffffffffffffffffffffffffffffffffffff160217905550600860076000858152602001908152602001600020600b0160006101000a81548160ff0219169083600b811115611ffa57fe5b02179055507feba13c7bce1c2327523660cf35e490f2e635925605f0e3b3a085916e971c2e31836040518082815260200191505060405180910390a1505050565b612044336126a6565b151561204f57600080fd5b61205881612e83565b50565b61206433612edd565b565b600061207c826004612c2d90919063ffffffff16565b9050919050565b806004600b81111561209157fe5b60076000838152602001908152602001600020600b0160009054906101000a900460ff16600b8111156120c057fe5b1415156120cc57600080fd5b6007600083815260200190815260200160002060020160009054906101000a900473ffffffffffffffffffffffffffffffffffffffff168073ffffffffffffffffffffffffffffffffffffffff163373ffffffffffffffffffffffffffffffffffffffff1614151561213d57600080fd5b600560076000858152602001908152602001600020600b0160006101000a81548160ff0219169083600b81111561217057fe5b02179055507ffc915768f0547b27b70dae743ed905692e0afd0fabecbcb57dc591d96c65be78836040518082815260200191505060405180910390a1505050565b806005600b8111156121bf57fe5b60076000838152602001908152602001600020600b0160009054906101000a900460ff16600b8111156121ee57fe5b1415156121fa57600080fd5b6007600083815260200190815260200160002060020160009054906101000a900473ffffffffffffffffffffffffffffffffffffffff168073ffffffffffffffffffffffffffffffffffffffff163373ffffffffffffffffffffffffffffffffffffffff1614151561226b57600080fd5b600660076000858152602001908152602001600020600b0160006101000a81548160ff0219169083600b81111561229e57fe5b02179055507f958137a1c8ad07703086ad5d3e71d5821f3110377d36d99d3e2aea02007ec61b836040518082815260200191505060405180910390a1505050565b60008060009054906101000a900473ffffffffffffffffffffffffffffffffffffffff16905090565b600061231e826003612c2d90919063ffffffff16565b9050919050565b60008060009054906101000a900473ffffffffffffffffffffffffffffffffffffffff1673ffffffffffffffffffffffffffffffffffffffff163373ffffffffffffffffffffffffffffffffffffffff1614905090565b816002600b81111561238a57fe5b60076000838152602001908152602001600020600b0160009054906101000a900460ff16600b8111156123b957fe5b1415156123c557600080fd5b6007600084815260200190815260200160002060030160009054906101000a900473ffffffffffffffffffffffffffffffffffffffff168073ffffffffffffffffffffffffffffffffffffffff163373ffffffffffffffffffffffffffffffffffffffff1614151561243657600080fd5b8260076000868152602001908152602001600020600a0181905550600360076000868152602001908152602001600020600b0160006101000a81548160ff0219169083600b81111561248457fe5b02179055507fa32310e5504e5df1cec141bcd85b409b74553f9b33665d857552c6051ef967dd846040518082815260200191505060405180910390a150505050565b6000806000806000606060006007600089815260200190815260200160002060000154965086600760008a815260200190815260200160002060010154965086600760008b8152602001908152602001600020600b0160009054906101000a900460ff16965086600760008c8152602001908152602001600020600b0160019054906101000a900473ffffffffffffffffffffffffffffffffffffffff16965086600760008d8152602001908152602001600020600c0160009054906101000a900473ffffffffffffffffffffffffffffffffffffffff16965086600760008e8152602001908152602001600020600d018054600181600116156101000203166002900480601f01602080910402602001604051908101604052809291908181526020018280546001816001161561010002031660029004801561264b5780601f106126205761010080835404028352916020019161264b565b820191906000526020600020905b81548152906001019060200180831161262e57829003601f168201915b5050505050965086600760008f8152602001908152602001600020600e0160009054906101000a900473ffffffffffffffffffffffffffffffffffffffff169650869650965096509650965096509650919395979092949650565b60006126bc826001612c2d90919063ffffffff16565b9050919050565b80600a600b8111156126d157fe5b60076000838152602001908152602001600020600b0160009054906101000a900460ff16600b81111561270057fe5b14151561270c57600080fd5b61271533612066565b151561272057600080fd5b60076000838152602001908152602001600020600a015480341015151561274657600080fd5b82600080336007600088815260200190815260200160002060020160006101000a81548173ffffffffffffffffffffffffffffffffffffffff021916908373ffffffffffffffffffffffffffffffffffffffff1602179055503360076000888152602001908152602001600020600e0160006101000a81548173ffffffffffffffffffffffffffffffffffffffff021916908373ffffffffffffffffffffffffffffffffffffffff160217905550600b60076000888152602001908152602001600020600b0160006101000a81548160ff0219169083600b81111561282757fe5b021790555060076000878152602001908152602001600020600c0160009054906101000a900473ffffffffffffffffffffffffffffffffffffffff1673ffffffffffffffffffffffffffffffffffffffff166108fc60076000898152602001908152602001600020600a01549081150290604051600060405180830381858888f193505050501580156128be573d6000803e3d6000fd5b507f698279d63e8cf3306845576d87e07c497f6b5e3fd25a6f6a9b630bab3de6aebc866040518082815260200191505060405180910390a160076000848152602001908152602001600020600a0154915081340390503373ffffffffffffffffffffffffffffffffffffffff166108fc829081150290604051600060405180830381858888f1935050505015801561295a573d6000803e3d6000fd5b50505050505050565b61296c33612f37565b565b806003600b81111561297c57fe5b60076000838152602001908152602001600020600b0160009054906101000a900460ff16600b8111156129ab57fe5b1415156129b757600080fd5b6129c033610f10565b15156129cb57600080fd5b60076000838152602001908152602001600020600a01548034101515156129f157600080fd5b82600080336007600088815260200190815260200160002060020160006101000a81548173ffffffffffffffffffffffffffffffffffffffff021916908373ffffffffffffffffffffffffffffffffffffffff1602179055503360076000888152602001908152602001600020600b0160016101000a81548173ffffffffffffffffffffffffffffffffffffffff021916908373ffffffffffffffffffffffffffffffffffffffff160217905550600460076000888152602001908152602001600020600b0160006101000a81548160ff0219169083600b811115612ad257fe5b02179055506007600087815260200190815260200160002060030160009054906101000a900473ffffffffffffffffffffffffffffffffffffffff1673ffffffffffffffffffffffffffffffffffffffff166108fc60076000898152602001908152602001600020600a01549081150290604051600060405180830381858888f19350505050158015612b69573d6000803e3d6000fd5b507fe53260d846850858c09375b7a9db20f12178dbe29dc5902eb18dd0f96dfb75ed866040518082815260200191505060405180910390a160076000848152602001908152602001600020600a0154915081340390503373ffffffffffffffffffffffffffffffffffffffff166108fc829081150290604051600060405180830381858888f19350505050158015612c05573d6000803e3d6000fd5b50505050505050565b612c16612325565b1515612c2157600080fd5b612c2a81612f91565b50565b60008073ffffffffffffffffffffffffffffffffffffffff168273ffffffffffffffffffffffffffffffffffffffff1614151515612c6a57600080fd5b8260000160008373ffffffffffffffffffffffffffffffffffffffff1673ffffffffffffffffffffffffffffffffffffffff16815260200190815260200160002060009054906101000a900460ff16905092915050565b612cd581600461308b90919063ffffffff16565b8073ffffffffffffffffffffffffffffffffffffffff167f28b26e7a3d20aedbc5f8f2ebf7da671c0491723a2b78f47a097b0e46dee0714260405160405180910390a250565b612d2f81600261308b90919063ffffffff16565b8073ffffffffffffffffffffffffffffffffffffffff167f6fdc0147105e43e21da80a75b42d0fd464060d5e1a34b0cefbf0b4ccfc2e36a160405160405180910390a250565b612d8981600461313b90919063ffffffff16565b8073ffffffffffffffffffffffffffffffffffffffff167fe3f5ed5f263f1f01764a96edfc7d025f511ec5f7d180e8816908b78bcf74f09860405160405180910390a250565b612de381600361313b90919063ffffffff16565b8073ffffffffffffffffffffffffffffffffffffffff167f126174f6cf49c81cdb4a9214c6b8f037bef55b4ec31e4fc776cea2a1c8a88d5960405160405180910390a250565b612e3d81600361308b90919063ffffffff16565b8073ffffffffffffffffffffffffffffffffffffffff167fddbf200aa634dc3fb81cfd68583dd1040d1c751d335e1d86b631bde3e977fea860405160405180910390a250565b612e9781600161308b90919063ffffffff16565b8073ffffffffffffffffffffffffffffffffffffffff167f2e0ded4123377a3c2bc9a26f1717655a129e2f20752924d42e730ec89c83dbd060405160405180910390a250565b612ef181600161313b90919063ffffffff16565b8073ffffffffffffffffffffffffffffffffffffffff167fa5e0f060af304ab17dd418c7927e3da3ae7868189bf387aee09ab179ccc572f260405160405180910390a250565b612f4b81600261313b90919063ffffffff16565b8073ffffffffffffffffffffffffffffffffffffffff167fafa2737b2090fa39c66b7348625f0c03726240f724defbc6216d679506f9444160405160405180910390a250565b600073ffffffffffffffffffffffffffffffffffffffff168173ffffffffffffffffffffffffffffffffffffffff1614151515612fcd57600080fd5b8073ffffffffffffffffffffffffffffffffffffffff166000809054906101000a900473ffffffffffffffffffffffffffffffffffffffff1673ffffffffffffffffffffffffffffffffffffffff167f5c486528ec3e3f0ea91181cff8116f02bfa350e03b8b6f12e00765adbb5af85c60405160405180910390a3806000806101000a81548173ffffffffffffffffffffffffffffffffffffffff021916908373ffffffffffffffffffffffffffffffffffffffff16021790555050565b600073ffffffffffffffffffffffffffffffffffffffff168173ffffffffffffffffffffffffffffffffffffffff16141515156130c757600080fd5b6130d18282612c2d565b1515156130dd57600080fd5b60018260000160008373ffffffffffffffffffffffffffffffffffffffff1673ffffffffffffffffffffffffffffffffffffffff16815260200190815260200160002060006101000a81548160ff0219169083151502179055505050565b600073ffffffffffffffffffffffffffffffffffffffff168173ffffffffffffffffffffffffffffffffffffffff161415151561317757600080fd5b6131818282612c2d565b151561318c57600080fd5b60008260000160008373ffffffffffffffffffffffffffffffffffffffff1673ffffffffffffffffffffffffffffffffffffffff16815260200190815260200160002060006101000a81548160ff0219169083151502179055505050565b828054600181600116156101000203166002900490600052602060002090601f016020900481019282601f1061322b57805160ff1916838001178555613259565b82800160010185558215613259579182015b8281111561325857825182559160200191906001019061323d565b5b50905061326691906132ea565b5090565b828054600181600116156101000203166002900490600052602060002090601f016020900481019282601f106132ab57805160ff19168380011785556132d9565b828001600101855582156132d9579182015b828111156132d85782518255916020019190600101906132bd565b5b5090506132e691906132ea565b5090565b61330c91905b808211156133085760008160009055506001016132f0565b5090565b905600a165627a7a723058207034866faeeeaf7ea252d6f1b730bd465c92f3f0c76a167fb75344be9f2b2ed50029",
  "source": "pragma solidity ^0.4.24;\n// Import the libraries of different roles\nimport \"../chocolatecore/Ownable.sol\";\nimport \"../chocolateaccesscontrol/FarmerRole.sol\";\nimport \"../chocolateaccesscontrol/FactoryRole.sol\";\nimport \"../chocolateaccesscontrol/DistributorRole.sol\";\nimport \"../chocolateaccesscontrol/ConsumerRole.sol\";\n// Define a contract 'Supplychain'\ncontract SupplyChain is Ownable, FarmerRole, FactoryRole, DistributorRole, ConsumerRole {\n\n  // Define a variable called 'upc' for Universal Product Code (UPC)\n  uint  upc;\n\n  // Define a variable called 'sku' for Stock Keeping Unit (SKU)\n  uint  sku;\n\n  // Define a public mapping 'items' that maps the UPC to an Item.\n  mapping (uint => Item) items;\n\n  // Define a public mapping 'itemsHistory' that maps the UPC to an array of TxHash, \n  // that track its journey through the supply chain -- to be sent from DApp.\n  mapping (uint => string[]) itemsHistory;\n  \n  // Define enum 'State' with the following values:\n  enum State \n  { \n    BeansHarvested,  // 0\n    BeansProcessed,  // 1\n    BeansPacked,     // 2\n    BeansForSale,    // 3\n    BeansSold,       // 4\n    BeansGround,    // 5\n    ChocolateMade,    // 6\n    ChocolateShipped,  // 7\n    ChocolateReceived,  // 8\n    ChocolateBranded, // 9\n    ChocolateForSale, // 10\n    ChocolateSold   // 11\n    }\n\n  State constant defaultState = State.BeansHarvested;\n\n  // Define a struct 'Item' with the following fields:\n  struct Item {\n    uint    sku;  // Stock Keeping Unit (SKU)\n    uint    upc; // Universal Product Code (UPC), generated by the Farmer, goes on the package, can be verified by the Consumer\n    address ownerID;  // Metamask-Ethereum address of the current owner as the product moves through 8 stages\n    address originFarmerID; // Metamask-Ethereum address of the Farmer\n    string  originFarmName; // Farmer Name\n    string  originFarmInformation;  // Farmer Information\n    string  originFarmLatitude; // Farm Latitude\n    string  originFarmLongitude;  // Farm Longitude\n    uint    productID;  // Product ID potentially a combination of upc + sku\n    string  productNotes; // Product Notes\n    uint    productPrice; // Product Price\n    State   itemState;  // Product State as represented in the enum above\n    address factoryID; // Metamask-Ethereum address of the Chocolate Factory\n    address distributorID;  // Metamask-Ethereum address of the Distributor\n    string chocolateBrand; // Brand that with which the distributor labels the chocolate\n    address consumerID; // Metamask-Ethereum address of the Consumer\n  }\n\n  // Define 8 events with the same 8 state values and accept 'upc' as input argument\n  event BeansHarvested(uint upc);\n  event BeansProcessed(uint upc);\n  event BeansPacked(uint upc);\n  event BeansForSale(uint upc);\n  event BeansSold(uint upc);\n  event BeansShipped(uint upc);\n  event BeansGround(uint upc);\n  event ChocolateMade(uint upc);\n  event ChocolateShipped(uint upc);\n  event ChocolateReceived(uint upc);\n  event ChocolateBranded (uint upc);\n  event ChocolateForSale (uint upc);\n  event ChocolateSold (uint upc);\n\n  // Define a modifer that verifies the Caller\n  modifier verifyCaller (address _address) {\n    require(msg.sender == _address); \n    _;\n  }\n\n  // Define a modifier that checks if the paid amount is sufficient to cover the price\n  modifier paidEnough(uint _price) { \n    require(msg.value >= _price); \n    _;\n  }\n  \n  // Define a modifier that checks the price and refunds the remaining balance\n  modifier checkValue(uint _upc) {\n    _;\n    uint _price = items[_upc].productPrice;\n    uint amountToReturn = msg.value - _price;\n    // The excess balance will be sent to msg.sender, not items[_upc].consumerID\n    msg.sender.transfer(amountToReturn);\n  }\n\n  // Define a modifier that checks if an item.state of a upc is BeansHarvested\n  modifier beansHarvested(uint _upc) {\n    require(items[_upc].itemState == State.BeansHarvested);\n    _;\n  }\n\n  // Define a modifier that checks if an item.state of a upc is BeansProcessed\n  modifier beansProcessed(uint _upc) {\n    require(items[_upc].itemState == State.BeansProcessed);\n    _;\n  }\n  \n  // Define a modifier that checks if an item.state of a upc is BeansPacked\n  modifier beansPacked(uint _upc) {\n    require(items[_upc].itemState == State.BeansPacked);\n    _;\n  }\n\n  // Define a modifier that checks if an item.state of a upc is BeansForSale\n  modifier beansForSale(uint _upc) {\n    require(items[_upc].itemState == State.BeansForSale);\n    _;\n  }\n\n  // Define a modifier that checks if an item.state of a upc is BeansSold\n  modifier beansSold(uint _upc) {\n    require(items[_upc].itemState == State.BeansSold);\n    _;\n  }\n\n    // Define a modifier that checks if an item.state of a upc is BeansGround\n  modifier beansGround(uint _upc) {\n    require(items[_upc].itemState == State.BeansGround);\n    _;\n  }\n\n      // Define a modifier that checks if an item.state of a upc is ChocolateMade\n  modifier chocolateMade(uint _upc) {\n    require(items[_upc].itemState == State.ChocolateMade);\n    _;\n  }\n  \n  // Define a modifier that checks if an item.state of a upc is ChocolateShipped\n  modifier chocolateShipped(uint _upc) {\n    require(items[_upc].itemState == State.ChocolateShipped);\n    _;\n  }\n\n  // Define a modifier that checks if an item.state of a upc is ChocolateReceived\n  modifier chocolateReceived(uint _upc) {\n    require(items[_upc].itemState == State.ChocolateReceived);\n    _;\n  }\n\n  // Define a modifier that checks if an item.state of a upc is ChocolateBranded\n  modifier chocolateBranded(uint _upc) {\n    require(items[_upc].itemState == State.ChocolateBranded);\n    _;\n  }\n\n    // Define a modifier that checks if an item.state of a upc is ChocolateForSale\n  modifier chocolateForSale(uint _upc) {\n    require(items[_upc].itemState == State.ChocolateForSale);\n    _;\n  }\n\n      // Define a modifier that checks if an address belongs to a distributor\n  modifier checkDistributor(address account) {\n    require(isDistributor(account));\n    _;\n  }\n\n  // Define a modifier that checks if an item.state of a upc is Purchased\n  modifier chocolateSold(uint _upc) {\n    require(items[_upc].itemState == State.ChocolateSold);    \n    _;\n  }\n\n  // In the constructor set 'owner' to the address that instantiated the contract\n  // and set 'sku' to 1\n  // and set 'upc' to 1\n  constructor() public payable {\n    sku = 1;\n    upc = 1;\n  }\n\n  // Define a function 'kill' if required\n  function kill() public onlyOwner {\n      selfdestruct(msg.sender);\n  }\n\n  // Define a function 'harvestBeans' that allows a farmer to mark an item 'BeansHarvested'\n  function harvestBeans(uint _upc, address _originFarmerID, string _originFarmName, string _originFarmInformation, string  _originFarmLatitude, string  _originFarmLongitude, string  _productNotes) public\n  // Access Control List enforced by calling Smart Contract / DApp\n  onlyFarmer\n  {\n    // Add the new item as part of Harvest\n    items[_upc] = Item({\n      sku: sku,\n      upc: _upc,\n      ownerID: msg.sender,\n      originFarmerID: _originFarmerID,\n      originFarmName: _originFarmName,\n      originFarmInformation: _originFarmInformation,\n      originFarmLatitude: _originFarmLatitude,\n      originFarmLongitude: _originFarmLongitude,\n      productID: sku + _upc,\n      productNotes: _productNotes,\n      productPrice: 0,\n      itemState: defaultState,\n      factoryID: 0x0,\n      distributorID: 0x0,\n      chocolateBrand: \"\",\n      consumerID: 0x0\n    });    \n    // Increment sku\n    sku = sku + 1;\n    // Emit the appropriate event\n    emit BeansHarvested(_upc);\n  }\n\n  // Define a function 'processtBeans' that allows a farmer to mark beans 'BeansProcessed'\n  function processBeans(uint _upc) public \n  // Call modifier to check if upc has passed previous supply chain stage\n  beansHarvested(_upc)\n  // Call modifier to verify caller of this function\n  verifyCaller(items[_upc].originFarmerID)\n  {\n    // Update the appropriate fields\n    items[_upc].itemState = State.BeansProcessed;\n    // Emit the appropriate event\n    emit BeansProcessed(_upc);    \n  }\n\n  // Define a function 'packBeans' that allows a farmer to mark beans 'BeansPacked'\n  function packBeans(uint _upc) public \n  // Call modifier to check if upc has passed previous supply chain stage\n  beansProcessed(_upc)\n  // Call modifier to verify caller of this function\n  verifyCaller(items[_upc].originFarmerID)\n  {\n    // Update the appropriate fields\n    items[_upc].itemState = State.BeansPacked;\n    // Emit the appropriate event\n    emit BeansPacked(_upc);\n  }\n\n  // Define a function 'sellBeans' that allows a farmer to mark beans 'BeansForSale'\n  function sellBeans(uint _upc, uint _price) public \n  // Call modifier to check if upc has passed previous supply chain stage\n  beansPacked(_upc)\n  // Call modifier to verify caller of this function\n  verifyCaller(items[_upc].originFarmerID)\n  {\n    // Update the appropriate fields\n    items[_upc].productPrice = _price;\n    items[_upc].itemState = State.BeansForSale;\n    // Emit the appropriate event\n    emit BeansForSale(_upc);    \n  }\n\n  // Define a function 'buyBeans' that allows the chocolate a factory to mark an item 'BeansSold'\n  // Use the above defined modifiers to check if the item is available for sale, if the buyer has paid enough, \n  // and any excess ether sent is refunded back to the buyer\n  function buyBeans(uint _upc) public payable \n    // Call modifier to check if upc has passed previous supply chain stage\n    beansForSale(_upc)\n    // Access Control List enforced by calling Smart Contract / DApp\n    onlyFactory\n    // Call modifer to check if buyer has paid enough\n    paidEnough(items[_upc].productPrice)\n    // Call modifer to send any excess ether back to buyer\n    checkValue(_upc)\n    {    \n    // Update the appropriate fields - ownerID, distributorID, itemState\n    items[_upc].ownerID = msg.sender;\n    items[_upc].factoryID = msg.sender;\n    items[_upc].itemState = State.BeansSold;\n    // Transfer money to farmer\n    items[_upc].originFarmerID.transfer(items[_upc].productPrice);\n    // emit the appropriate event\n    emit BeansSold(_upc);\n  }\n\n      // Define a function 'grindBeans' that allows the factory to mark an item 'BeansGround'\n  // Use the above modifers to check if the item is sold\n  function grindBeans(uint _upc) public \n    // Call modifier to check if upc has passed previous supply chain stage\n    beansSold(_upc)\n    // Call modifier to verify caller of this function\n    verifyCaller(items[_upc].ownerID)\n    {\n    // Update the appropriate fields\n    items[_upc].itemState = State.BeansGround;\n    // Emit the appropriate event\n    emit BeansGround(_upc);    \n  }\n\n    // Define a function 'makeChocolate' that allows the factory to mark an item 'ChocolateMade'\n  // Use the above modifers to check if the beans have been ground\n  function makeChocolate(uint _upc) public \n    // Call modifier to check if upc has passed previous supply chain stage\n    beansGround(_upc)\n    // Call modifier to verify caller of this function\n    verifyCaller(items[_upc].ownerID)\n    {\n    // Update the appropriate fields\n    items[_upc].itemState = State.ChocolateMade;\n    // Emit the appropriate event\n    emit ChocolateMade(_upc);\n  }\n\n  // Define a function 'shipChocolate' that allows the factory to mark an item 'ChocolateShipped' and set the distributor\n  // Use the above modifers to check if the item is sold\n  function shipChocolate(uint _upc, address _distributor) public \n    // Call modifier to check if upc has passed previous supply chain stage\n    chocolateMade(_upc)\n    // Access Control List enforced by calling Smart Contract / DApp\n    checkDistributor(_distributor)\n    // Call modifier to verify caller of this function\n    verifyCaller(items[_upc].ownerID)\n    {\n    // Update the appropriate fields. The factory sets the distributorID field\n    items[_upc].distributorID = _distributor;\n    items[_upc].itemState = State.ChocolateShipped;\n    // Emit the appropriate event\n    emit ChocolateShipped(_upc);    \n  }\n\n  // Define a function 'receiveChocolate' that allows the retailer to mark an item 'ChocolateReceived'\n  // Use the above modifiers to check if the item is shipped\n  function receiveChocolate(uint _upc) public \n    // Call modifier to check if upc has passed previous supply chain stage\n    chocolateShipped(_upc)\n    // Call modifier to verify caller of this function\n    verifyCaller(items[_upc].distributorID)\n    {\n    // Update the appropriate fields - ownerID, itemState\n    items[_upc].ownerID = msg.sender;\n    items[_upc].itemState = State.ChocolateReceived;    \n    // Emit the appropriate event\n    emit ChocolateReceived(_upc);\n  }\n\n    // Define a function 'brandChocolate' that allows the distributor to set the chocolateField of and item and mark it 'ChocolateBranded'\n  // Use the above modifiers to check if the item is received\n  function brandChocolate(uint _upc, string _brand) public \n    // Call modifier to check if upc has passed previous supply chain stage\n    chocolateReceived(_upc)\n    // Call modifier to verify caller of this function\n    verifyCaller(items[_upc].ownerID)\n    {\n    // Update the appropriate fields - chocolateBrand, itemState\n    items[_upc].chocolateBrand = _brand;\n    items[_upc].itemState = State.ChocolateBranded;    \n    // Emit the appropriate event\n    emit ChocolateBranded(_upc);\n  }\n\n      // Define a function 'sellChocolate' that allows the distributor to mark an item 'ChocolateForSale'\n  // Use the above modifiers to check if the item is branded\n  function sellChocolate(uint _upc, uint _price) public \n    // Call modifier to check if upc has passed previous supply chain stage\n    chocolateBranded(_upc)\n    // Call modifier to verify caller of this function\n    verifyCaller(items[_upc].ownerID)\n    {\n    // Update the appropriate fields - productPrice, itemState\n    items[_upc].productPrice = _price;\n    items[_upc].itemState = State.ChocolateForSale;    \n    // Emit the appropriate event\n    emit ChocolateForSale(_upc);\n  }\n\n  // Define a function 'purchaseItem' that allows the consumer to mark an item 'Purchased'\n  // Use the above modifiers to check if the item is received\n  function purchaseItem(uint _upc) public payable\n    // Call modifier to check if upc has passed previous supply chain stage\n    chocolateForSale(_upc)    \n    // Access Control List enforced by calling Smart Contract / DApp\n    onlyConsumer\n    // Call modifer to check if buyer has paid enough\n    paidEnough(items[_upc].productPrice)\n    // Call modifer to send any excess ether back to buyer\n    checkValue(_upc)\n    {\n    // Update the appropriate fields - ownerID, consumerID, itemState\n    items[_upc].ownerID = msg.sender;\n    items[_upc].consumerID = msg.sender;\n    items[_upc].itemState = State.ChocolateSold;\n    // Transfer money to distributor\n    items[_upc].distributorID.transfer(items[_upc].productPrice);    \n    // Emit the appropriate event\n    emit ChocolateSold(_upc);\n  }\n\n  // Getting a 'CompilerError: Stack too deep, try removing local variables'\n  // therefore three buffers will be used\n  // Define a function 'fetchItemBufferOne' that fetches the data\n  function fetchItemBufferOne(uint _upc) public view returns \n  (\n  uint    itemSKU,\n  uint    itemUPC,\n  address ownerID,\n  address originFarmerID,\n  string  originFarmName,\n  string  originFarmInformation\n  ) \n  {\n  // Assign values to the 8 parameters\n  \n    \n  return \n  (\n  itemSKU = items[_upc].sku,\n  itemUPC = items[_upc].upc,\n  ownerID = items[_upc].ownerID,\n  originFarmerID = items[_upc].originFarmerID,\n  originFarmName = items[_upc].originFarmName,\n  originFarmInformation = items[_upc].originFarmInformation\n  );\n  }\n\n  // Define a function 'fetchItemBufferTwo' that fetches the data\n  function fetchItemBufferTwo(uint _upc) public view returns \n  (\n  uint    itemSKU,\n  uint    itemUPC,\n  string  originFarmLatitude,\n  string  originFarmLongitude,  \n  uint    productID,\n  string  productNotes,\n  uint    productPrice\n  ) \n  {\n    // Assign values to the 10 parameters\n  \n    \n  return \n  (\n  itemSKU = items[_upc].sku,\n  itemUPC = items[_upc].upc,\n  originFarmLatitude = items[_upc].originFarmLatitude,\n  originFarmLongitude = items[_upc].originFarmLongitude,  \n  productID = items[_upc].productID,\n  productNotes = items[_upc].productNotes,\n  productPrice = items[_upc].productPrice\n  );\n  }\n\n    // Define a function 'fetchItemBufferThree' that fetches the data\n  function fetchItemBufferThree(uint _upc) public view returns \n  (\n  uint    itemSKU,\n  uint    itemUPC,\n  State    itemState,\n  address factoryID,\n  address distributorID,\n  string  chocolateBrand,\n  address consumerID\n  ) \n  {\n    // Assign values to the 10 parameters\n  \n    \n  return \n  (\n  itemSKU = items[_upc].sku,\n  itemUPC = items[_upc].upc,\n  itemState = items[_upc].itemState,\n  factoryID = items[_upc].factoryID,\n  distributorID = items[_upc].distributorID,\n  chocolateBrand = items[_upc].chocolateBrand,\n  consumerID = items[_upc].consumerID\n  );\n  }\n}",
  "sourcePath": "/mnt/c/pr0/Udacity/SupplyChain/nd1309-Project-6b-Example-Template/project-6/contracts/chocolatebase/SupplyChain.sol",
  "compiler": {
    "name": "solc",
    "version": "0.4.26+commit.4563c3fc.Emscripten.clang"
  },
  "schemaVersion": "3.3.4",
  "updatedAt": "2021-05-18T09:02:52.430Z",
  "networkType": "ethereum",
  "devdoc": {
    "methods": {}
  },
  "userdoc": {
    "methods": {
      "isOwner()": {
        "notice": "Check if the calling address is the owner of the contract"
      },
      "owner()": {
        "notice": "Look up the address of the owner"
      },
      "renounceOwnership()": {
        "notice": "Define a function to renounce ownerhip"
      },
      "transferOwnership(address)": {
        "notice": "Define a public function to transfer ownership"
      }
    }
  }
}